:020000040800F2
:1000000078430020010100080109000805090008E3
:10001000090900080D090008110900080000000086
:1000200000000000000000000000000015090008AA
:1000300019090008000000001D0900082109000836
:100040001B0100081B0100081B0100081B01000820
:100050001B0100081B010008A90B00081B01000878
:100060001B0100081B0100081B0100081B01000800
:100070001B0100081B0100081B0100081B010008F0
:1000800025090008310900081B0100081B010008B0
:100090001B0100081B0100081B0100083D090008A6
:1000A0001B0100081B0100081B0100081B010008C0
:1000B0001B0100081B0100081B0100081B010008B0
:1000C0001B0100081B0100081B0100081B010008A0
:1000D0001B010008450900085D0B00081B01000812
:1000E000A10B00081B0100081B010008DFF80CD061
:1000F00016F0BCFB004800472501000878430020AB
:100100000648804706480047FEE7FEE7FEE7FEE7B1
:10011000FEE7FEE7FEE7FEE7FEE7FEE7C99E000812
:10012000ED000008B0B590B005F0B4F900244FF42C
:100130008030092102250B94CDE9094407900691EE
:10014000012108940A910C91CDE90D504FF4E01073
:100150000F9006A805F01AFB0F200221CDE901053A
:100160004FF480600394CDE9040401A805F010FD6C
:1001700000F078F800F04AF900F0F6F900F09EFA85
:1001800000F066F900F0D8F900F078FA17200021A5
:10019000002206F0C1FD172006F0F0FD13F01CFC54
:1001A00040F6CE01C2F20001087014F0EDFE40F6F8
:1001B000CD01C2F20001087010F020FB40F6CC0126
:1001C000C2F20001087042F66030C2F2000001681D
:1001D000CA6842F01002CA6040F23C71C822C2F202
:1001E000000109F017F8002010F082F800F0A4F9DF
:1001F00010F0C2F842F6143040F604010122C2F2B7
:100200000000C2F2000108F03DFF0AF0FDF800BF57
:10021000FEE700BFB0B590B000244FF48030092154
:1002200002250B94CDE90944079006910121089419
:100230000A910C91CDE90D504FF4E0100F9006A8F3
:1002400005F0A4FA0F200221CDE901054FF48060EA
:100250000394CDE9040401A805F09AFC10B0B0BDE8
:10026000704700002DE9F04F85B041F218004FF0C3
:10027000000840F600050022CDE90388C4F2020020
:10028000C4F20105016841F010010160016801F04C
:10029000100100910099016841F02001016001689E
:1002A00001F0200100910099016841F00401016012
:1002B000016801F0040100910099016841F0080112
:1002C000016040F20111006800F008000090009801
:1002D000284606F041F8284648F21001012201277D
:1002E00006F03AF805F5806401210022204606F068
:1002F00033F820461821012206F02EF84FF00309AA
:1003000001AE4FF46040CDF80890019005F5006013
:10031000314605F00DFE11204FF0020B3146CDE9BC
:1003200001702846CDF80C80CDF810B005F000FE25
:1003300041F20200CDF8089031460190284605F0C0
:10034000F7FD10200297314601902846CDE9038938
:1003500005F0EEFD20463146CDE90177CDE9037B7E
:1003600005F0E6FD4FF60640CDF8088031460190D5
:100370002046039705F0DCFD4FF48070029731466C
:1003800001902846CDE903BB05F0D2FD4FF40040B3
:100390000297314601902846CDE9038B05F0C8FD50
:1003A00040F2000A4FF400603146C1F2110ACDF864
:1003B00008A001902846039705F0BAFD182002977F
:1003C000314601902046CDE9038B05F0B1FD202098
:1003D000CDF808A0314601902046CDF80CB005F0CC
:1003E000A7FD4FF44070CDF80890314601902046AB
:1003F00005F09EFD28200021002206F08DFC28201B
:1004000006F0BCFC05B0BDE8F08F000080B582B0FE
:1004100041F214000022C4F20200016841F001011F
:1004200001600021006800F0010001900198102097
:1004300006F072FC102006F0A1FC11200021002221
:1004400006F06AFC112002B0BDE8804006F096BCC0
:1004500080B542F6502041F6802145F2004200234B
:100460004FF4804CC2F20000C0F20601C4F2000258
:100470000362C0E90021C0E90233C0E904C3C0E956
:10048000063300F0BBFB002814BFBDE8804080BDF0
:10049000FFF7E6BE10B586B00021CDE90411CDE925
:1004A0000211016845F20040C4F20000814201D00F
:1004B00006B010BD41F2180400F53840C4F2020441
:1004C000216841F008012160216801F008010191D3
:1004D000019912210391C02102910321059102A9E2
:1004E00005F026FD606840F400106060606800F46C
:1004F00000100190019806B010BD00BF10B540F685
:1005000000440068C4F20104A4F53841884218BFD1
:1005100010BD41F21C00C4F20200016821F4001178
:1005200001602046402105F017FE20468021BDE8ED
:10053000104005F011BE000080B542F6AC2043F239
:10054000000204214FF47A73C2F20000C4F20002E8
:10055000C0E90021836006F0F1FC002814BFBDE86B
:10056000804080BDFFF77CBE80B542F6B82043F2E4
:1005700000024FF4827100234FF4007C4FF0200EF4
:10058000C2F20000C4F20102C0E900210A21C0E960
:100590000233C0E90433C0E906CEC0E90833C0E93C
:1005A0000A3106F0FDFC002814BFBDE8804080BD84
:1005B000FFF756BE70B586B0002640F60004CDE9C0
:1005C0000466CDE90266C4F20104006804F5205116
:1005D000884201D006B070BD41F2180002ADC4F2ED
:1005E0000200016841F480510160016801F480510A
:1005F00001910199016841F00401016029460068F8
:1006000000F004000190019802200390A0200290C5
:1006100003200590204605F08BFC402003962946D8
:10062000029001200490204605F082FC06B070BDC7
:10063000014640F60000C4F20100096800F52052AE
:10064000914218BF704741F21801C4F202010A68D2
:1006500022F480520A60E02105F07EBD80B582B0B0
:10066000019042F6603001A901224FF6FF73C2F2F9
:10067000000008F049FB019802B080BD80B542F649
:10068000143043F600024FF4165100234FF00C0CC7
:10069000C2F20000C4F20102C0E90021C0E9023345
:1006A000C0E9043CC0E9063308F044F9002814BF4F
:1006B000BDE8804080BDFFF7D3BD00BF80B542F6E6
:1006C000603044F200424FF4612100234FF00C0CE3
:1006D000C2F20000C4F20002C0E90021C0E9023306
:1006E000C0E9043CC0E9063308F024F9002814BF2F
:1006F000BDE8804080BDFFF7B3BD00BF2DE9F043EA
:1007000085B00027044644F20041CDE90377CDE9E6
:100710000177C4F200012068884241D043F600010D
:10072000C4F20101884240F0A88041F2180040F66E
:10073000000401ADC4F20200C4F20104016841F4F6
:1007400080410160016801F48041009100990168D5
:1007500041F0040101602946006800F004000090A7
:100760000098022002904FF4007001900320049042
:10077000204605F0DDFB00204FF4806102900191DE
:1007800003902046294605F0D3FB252000210022B6
:1007900006F0C2FA252006F0F1FA05B0BDE8F083B4
:1007A00041F2180040F6000501AEC4F20200C4F2A6
:1007B0000105416841F400314160416801F40031B4
:1007C00000910099016841F0040101603146006820
:1007D00000F0040000900098022002900420019094
:1007E00003200490284605F0A3FB08200297314619
:1007F00001902846039705F09BFB40F2301540F22C
:100800006C094FF080084FF40050C2F20005C4F2AA
:100810000209C5E90097C5E90278C5E90477C5E989
:100820000670284605F0C8FD002818BFFFF718FD20
:1008300040F2C01600204FF4405109F11402102379
:10084000A563AC62C2F20006C6E90023C6E902084D
:10085000C6E90400C6E90601304605F0ADFD0028F2
:1008600018BFFFF7FDFC2620002100226663B4625A
:1008700006F052FA262006F081FA05B0BDE8F083B2
:1008800010B5044644F200412068C4F200018842D9
:100890001BD043F60001C4F20101884218BF10BD0D
:1008A00041F21800C4F20200016821F480410160A5
:1008B00040F600004FF4C061C4F2010005F04CFCAA
:1008C0002520BDE8104006F069BA41F21800C4F2D4
:1008D0000200416821F40031416040F600000C2123
:1008E000C4F2010005F038FCA06B05F0A3FD606BBD
:1008F00005F0A0FD2620BDE8104006F04FBA00002C
:10090000704700BFFEE700BFFEE700BFFEE700BF85
:10091000FEE700BF704700BF704700BF704700BFD1
:1009200004F002BE40F23010C2F2000006F0AEB891
:1009300040F2C010C2F2000006F0A8B8202005F076
:100940002DBD00BF42F61430C2F2000009F090B88D
:1009500040F210004EF21401C2F20000CEF200018B
:1009600000680A684B680968D21A4FF47A735A43D0
:10097000B2FBF1F100FB03100021704780B540F29B
:10098000781040F210024FF47A7E0023C2F2000089
:10099000C2F20002D0E900101268101A4018A0FB41
:1009A0000EC143F1000303FB0E114EF21403CEF20D
:1009B000000318685A68801A1A6800FB0EF0B0FB32
:1009C000F2F010EB0C0041F1000180BD43280AD089
:1009D000502812D0472819D140F210214722C2F2E4
:1009E00000018A7012E040F21021C2F20001CA78C0
:1009F000502A0BD143228A711DE040F21021C2F22D
:100A000000018A78472A04BF5022CA7040F21021A0
:100A1000C2F200018A79432A1DD12C280BD14A78D1
:100A200001324A70D1B209290DD140F002012E29BC
:100A300008BF704710E040F21021C2F200014A786E
:100A4000D1B20929F1D0022911D0012903D140F0F6
:100A500002012E2900D1704740F21021D030C2F29D
:100A600000010A788B181873501C087070472DE924
:100A7000F04140F210200021C2F200004181C0F894
:100A80000610C0F802100180827BC37B90F810E052
:100A900090F811C043EA020444EA0E0454EA0C043C
:100AA00009D0047B092C06D8457B092D03D8092AD7
:100AB00098BF092B05D98182C0E90311BDE8F04137
:100AC0007047BEF1090F98BFBCF1090FF3D840F28F
:100AD000100640F27818C3EB0313C2F20006C2F20C
:100AE000000837683668C8F804604FF41676724319
:100AF00002EB83020EEB8E0302EB430248F6A043A7
:100B0000624404FB03224FF4616305FB03224FF4AC
:100B10007A7302FB0372D8F80830D21AC8F80020A2
:100B20008182C0E90311BDE8F041704742F61431FB
:100B3000C2F20001884218BF704710B540F60404A5
:100B400042F614300122C2F20004C2F20000214633
:100B500008F098FA2078BDE8104037E710B582B069
:100B600042F66034C2F20004204608F081FF002003
:100B70000190206801680191406801900198204629
:100B800008F032FC20460AF011FC40F23C7120468D
:100B9000C822C2F2000102B0BDE8104008F03ABB22
:100BA0004FF4006005F0FABB012005F0F7BB000030
:100BB00080B582B041F21800C4F20200016841F031
:100BC00001010160016801F0010101910199416891
:100BD00041F080514160406800F0805000900098E2
:100BE000052006F089F804200222C4F20100016801
:100BF00062F31A61016002B080BD0000B0B5044626
:100C000044B3206C20B90020E0632046FFF742FC8B
:100C1000242020642068016821F00101016001683E
:100C200041F400410160016821F40041016005F0D8
:100C3000EBF848F2A161656840F60013C0F20101CB
:100C4000C0F23D038D423CBF48F28043C0F21E0318
:100C5000984201D20120B0BD4DF68361C4F21B3130
:100C6000A0FB011321684A6822F03F0242EA934246
:100C70009B0C4A600A6A22F03F0C48F2A062C0F264
:100C80000102954213D85A1C01384CF6FF7342EA10
:100C90000C020A626A00B0FBF2F001306FF31F3001
:100CA000042898BF0420CA6922EA030C3FE04FF4ED
:100CB0009672A0F1010E5A4344F6D353C1F2620377
:100CC000A2FB0323012202EB93124CF6FF7342EACC
:100CD0000C020A62CA6922EA030CA3689BB11920BC
:100CE00004226843BEFBF0F0013062F31F300005C0
:100CF00012D09BB1192004226843BEFBF0F00130F2
:100D000062F31F3011E005EB4500BEFBF0F001304F
:100D10006FF31F300005ECD1012008E005EB450022
:100D2000BEFBF0F001306FF31F3040F4004040EAAA
:100D30000C00C8610868D4E9072320F0C000104304
:100D400048F2FF321843086088689043D4E90323CF
:100D5000184310438860C868D4E9052320F0FF00D9
:100D600010431843C860086840F001000860002084
:100D70002021A064216420636064B0BD704700BF7F
:100D800010B50446002C04BF012010BD24202064AF
:100D90002068016821F0010101602046FFF7AEFBE9
:100DA0000020A06420642063E063606410BD00BF85
:100DB000704700BF2DE9F04381B01E4617468846B4
:100DC000044604F0BBFB0546206C202819D100BF67
:100DD0002068816911F0020F18D004F0AFFB401BAE
:100DE0001A28F5D3002020210226206321646064A4
:100DF000E063A06C40F02000A064304601B0BDE884
:100E0000F0830226304601B0BDE8F083E16B012992
:100E100004D10226304601B0BDE8F0830121002252
:100E2000DDF82090E163CFF6FF72016811F0010F49
:100E300002BF016841F001010160016821F4006115
:100E4000016021212164102161640021A164668573
:100E5000618DE26267622185E16A11F5803F18BF0A
:100E600001292AD1016841F48071016019F101075B
:100E700012D04169B9F1000F01F0010123D0E1BBAB
:100E800004F05CFB401B484520D82068416911F004
:100E9000010FF5D031E000BF416911F0010F2CD1F5
:100EA000416911F0010F28D1416911F0010F24D1DE
:100EB000416911F0010FEFD01FE00829D2D0216B5A
:100EC0001229CFD0D2E7C1B904F038FB002020218D
:100ED0000126206321646064E063A06C40F0200080
:100EE000A0642068006810F4807F1CBF4FF400707D
:100EF000A064304601B0BDE8F0832169B1F5804FB0
:100F000002D108F0FE0130E00621002F01EAD811DD
:100F100041F0F0010161014651F8142F02F008027E
:100F200017D002BBB9F1000F00F01F810A6812F45C
:100F3000806F40F02F8104F001FB401B484500F218
:100F40001A812068014651F8142F12F0080FEDD0D5
:100F500009E042B90A6812F4806F40F01B810A6808
:100F600012F0080FF6D05FFA88F101610146002FF8
:100F700051F8142F02F0020217D002BBB9F1000F92
:100F800000F0C8800A6812F4806F40F0D88004F046
:100F9000D5FA401B484500F2C3802068014651F84D
:100FA000142F12F0020FEDD009E042B90A6812F4D2
:100FB000806F40F0C4800A6812F0020FF6D000265D
:100FC00000960A68009282690092009A228D002A97
:100FD00000F09480002F5DD04FF6FF78014651F865
:100FE000143F13F0800F18D1B9F1000F00F0E88022
:100FF000086810F4806F40F0EB8004F09FFA401B0B
:10100000484500F2E3802068014651F8142F12F0A1
:10101000800FEDD0B4F828C000E09446676A3A46E5
:1010200012F8013B03616262ACF10102228512EA0F
:10103000080F638DA3F1010363850B6818BF13F0DC
:10104000040309D07A780261BA1C6262ACF1020230
:101050002285638D013B63850B6813F0040F16D165
:10106000B9F1000F00F0D380086810F4806F40F0F1
:10107000D68004F063FA401B484500F2CE80206819
:10108000014651F8142F12F0040FEDD0228D1104F7
:10109000A4D133E04FF6FF7C0B6813F0800F04D12E
:1010A0000B6813F4806FF7D092E0656A2B4613F853
:1010B000017B0761571E6362278517EA0C0F638D5A
:1010C000A3F1010363850B6818BF13F0040309D073
:1010D0006B78971E0361AB1C63622785628D013AB2
:1010E000628500BF0A6812F0040F04D10A6812F486
:1010F000806FF7D093E03A043A46CDD1016841F4CD
:101100000071016020202064E6636664304601B00F
:10111000BDE8F0830A6812F4806F10D104F00EFA73
:10112000002020210126206321646064E063A06C1C
:1011300040F02000A064304601B0BDE8F0830268B2
:10114000012642F4007202606FF4806008600020A3
:101150002021206321646064E063A06C40F00400FF
:10116000A064304601B0BDE8F0830A6812F4806FD5
:1011700010D104F0E3F9002020210126206321642E
:101180006064E063A06C40F02000A064304601B0D1
:10119000BDE8F0830268012642F4007202606FF439
:1011A0008060086000202021206321646064E06387
:1011B000A06C40F00400A064304601B0BDE8F083AC
:1011C000086810F4806F03D104F0B8F9202003E020
:1011D0006FF48060086004200021202221632264D3
:1011E0006164A26C1043A064E163A06C042809D17F
:1011F00020680126016841F400710160304601B0A9
:10120000BDE8F0830126304601B0BDE8F0830868F0
:1012100010F4806F03D104F091F9202003E06FF403
:101220008060086004200021202221632264616420
:10123000A26C1043A064E163A06C042809D120686B
:101240000126016841F400710160304601B0BDE83B
:10125000F0830126304601B0BDE8F0832DE9F04F60
:1012600083B0044600201E4617468846019004F0CD
:1012700065F90546206C20281BD100BF20688169D4
:1012800011F0020F12D004F059F9401B1A28F5D3BF
:1012900000202021206321646064E063A06C40F0A2
:1012A0002000A064022003B0BDE8F08FE16B0129AB
:1012B00003D1022003B0BDE8F08F01210022DDF848
:1012C0003090E163CFF6FF72016811F0010F02BFA9
:1012D000016841F001010160016821F400610160D1
:1012E00022212164102161640021A1646685618D41
:1012F000E26267622185E16A026842F4806211F568
:10130000803F026018BF01292BD1016841F4807130
:10131000016019F1010613D04169B9F1000F01F024
:10132000010124D0C9BB00BF04F008F9401B4845A7
:1013300020D82068416911F0010FF5D02DE000BFE1
:10134000416911F0010F28D1416911F0010F24D139
:10135000416911F0010F20D1416911F0010FEFD067
:101360001BE00829D1D0216B1129CED0D1E7A1B93A
:1013700004F0E4F800202021206321646064E0632D
:10138000A06C40F02000A0642068006810F4807F0A
:1013900000F073824FF400706EE22169B1F5804F66
:1013A00004D108F0FE0141F001019CE00621002E6D
:1013B00001EAD81747F0F0010161014651F8142FF6
:1013C00002F0080217D032BBB9F1000F00F0C6805E
:1013D0000A6812F4806F40F0D18004F0AFF8401B2F
:1013E000484500F2C1802068014651F8142F12F0E0
:1013F000080FEDD009E072BB0A6812F4806F40F06C
:10140000BD800A6812F0080FF6D05FFA88F1002E4E
:10141000016103D122E05FFA88F10161014651F8D0
:10142000142F12F0020F28D1B9F1000F00F09680AE
:101430000A6812F4806F40F0A18004F07FF8401B2E
:10144000484500F291802068014651F8142F12F0AF
:10145000020FEDD011E05FFA88F10161014651F809
:10146000142F12F0020F08D10A6812F4806F40F0B6
:1014700085800A6812F0020FF6D00022002E029238
:101480000A68029282690292029A026842F48072A9
:10149000026012D00968B9F1000F01F001011DD0FE
:1014A000F9B904F04BF8401B48453FF663AF20689C
:1014B000416911F0010FF4D013E00A6812F0010F36
:1014C0000FD10A6812F0010F0BD10A6812F0010F58
:1014D00007D10A6812F0010FEFD002E000293FF4B3
:1014E00047AF47F0F10101610146002E51F8142F7A
:1014F00002F0020215D0EAB9B9F1000F2ED000BFF8
:101500000A6812F4806F39D104F018F8401B48457E
:101510002AD82068014651F8142F12F0020FEFD09C
:1015200008E03AB90A6812F4806F27D10A6812F00D
:10153000020FF7D0218D012931D0002946D1002199
:10154000029141690291816902910299016841F415
:1015500000710160208D00285FD15CE10A6812F4FF
:10156000806F0BD103F0EAFF00202021206321646B
:101570006064E063A06C40F020007DE1026842F40A
:10158000007202606FF480600860002020212063F8
:1015900021646064E063A06C40F004006CE10168C9
:1015A00021F480610160EFF3108072B60020029098
:1015B000206841690291816902910299016841F4B0
:1015C0000071016062B6208D38BB24E102680229F7
:1015D00015D142F400610160EFF3108072B6002073
:1015E0000290206841690291816902910299016823
:1015F00021F48061016062B6208D70B90BE142F484
:10160000806101600021029141690291806902902C
:101610000298208D002800F0FE804BF2895A4FF08E
:10162000230B0027C1F2F84A1FFA80F8B8F1030F24
:101630001FD8B8F1010F4CD1206850F8141F11F0D9
:10164000400F40F0D880B9F1000F00F0FB80016836
:1016500011F0100F40F0058103F070FF401B48456A
:1016600000F2F680206850F8141F11F0400FEED001
:10167000C1E02168084650F8142F12F0400F15D130
:10168000B9F1000F00F0DE80016811F0100F40F09A
:10169000E88003F053FF401B484500F2D9802168E1
:1016A000084650F8142F12F0400FEDD00869616A17
:1016B0000870606A216801306062208D01382085E1
:1016C000628D013A6285496911F0040F40F0938000
:1016D0009EE0206896B14069B9F1000F00F0040067
:1016E0001DD000286CD103F029FF401B48451AD8B3
:1016F0002068406910F0040FF5D061E0416911F0F5
:10170000040F5DD1416911F0040F59D1416911F005
:10171000040F55D1416911F0040FEFD050E00028BB
:101720004ED103F00BFF2020276320646764E7633A
:10173000A06C40F02000A0640120B8F1020F43D05B
:10174000002840F09A802068016821F480610160DF
:10175000EFF3108072B620680069616A0870606AF1
:1017600001306062618D01396185218D01392185EA
:1017700040F20811C2F200010968C908A1FB0A126F
:10178000110A01FB0BF101910199013901910199B4
:10179000002948D021684A6912F0040FF4D00A6881
:1017A00042F400720A6009690170606A0130606287
:1017B000208D01382085608D0138608562B61AE081
:1017C0000020B8F1020FBBD1002856D1EFF31080F2
:1017D00072B62068016841F4007101600069616AB5
:1017E0000870606A01306062608D01386085208D0C
:1017F0000138208562B620680069616A0870606AF5
:1018000001306062208D01382085618D013961854C
:1018100001047FF409AF202020640020E0636064AD
:1018200003B0BDE8F08F00202021206321646064B4
:10183000A16C41F02001A16462B6E063012003B015
:10184000BDE8F08F016811F0100F0AD103F076FEA9
:1018500000202021206321646064A06C40F02000FF
:1018600008E06FF010010160002020212063216456
:101870006064A06C0021E163A064012003B0BDE8B6
:10188000F08F00BF2DE9F04782B01D4616460F4687
:10189000044603F053FE8046206C20280BD1002F15
:1018A0004FF0010018BF002E02D102B0BDE8F08752
:1018B000E06B012803D1022002B0BDE8F0870120CF
:1018C0000022E063CFF6FF722068016811F0010F7B
:1018D00002BF016841F00101016015F1010A0168D0
:1018E00021F4006101604FF0210121644FF02001DB
:1018F00061644FF00001A16466856762618DE262F8
:101900002185016841F48062014641F8142B13D00F
:101910000A68002D02F002021FD012BB03F00EFE77
:10192000A0EB0800A84252D82068014651F8142FB5
:1019300012F0020FF2D014E00A6812F0020F10D178
:101940000A6812F0020F0CD10A6812F0020F08D1D7
:101950000A6812F0020FEFD003E012B903F0EEFDB7
:1019600035E0002201920A68019282690192019A8F
:101970002269B2F5404F3FD1BAF1000F13D00A6887
:10198000002D02F002021FD07ABB03F0D7FDA0EBBE
:101990000800A8421BD82068014651F8142F12F005
:1019A000020FF2D021E00A6812F0020F1DD10A687E
:1019B00012F0020F19D10A6812F0020F15D10A684D
:1019C00012F0020FEFD010E07AB903F0B7FD00205B
:1019D0002021206321646064E063A06C40F020005B
:1019E000A064012002B0BDE8F087002200920968DF
:1019F0000091816900910099228D002A73D0BAF17B
:101A0000000F43D04FF6FF79014651F8143F13F011
:101A1000800F18D1002D00F0B08000BF086810F4CE
:101A2000806F40F0B28003F089FDA0EB0800A8426F
:101A300000F2A9802068014651F8142F12F0800F9F
:101A4000ECD0238D00E01346676A3A4612F8016B2A
:101A5000066162625A1E228512EA090F668DA6F19E
:101A600001066685096818BF11F0040102D111044E
:101A7000CAD138E079789A1E0161B91C6162228569
:101A8000618D013961851104BED12CE000F1140192
:101A90004FF6FF7C174600BF0A6812F0800F04D192
:101AA0000A6812F4806FF7D06FE0636A1A4612F882
:101AB000016B066162627A1E228512EA0C0F668D46
:101AC000A6F101066685466918BF16F0040608D01F
:101AD0005A7802619A1C6262BA1E2285638D013BAC
:101AE00063851304D6D100F11401BAF1000F13D0AD
:101AF0000A68002D02F480621FD07ABB03F01EFD3D
:101B0000A0EB0800A8421BD82068014651F8142F0A
:101B100012F4806FF2D021E00A6812F4806F1DD1B8
:101B20000A6812F4806F19D10A6812F4806F15D117
:101B30000A6812F4806FEFD010E07AB903F0FEFC6F
:101B400000202021206321646064E063A06C40F0E9
:101B50002000A064012002B0BDE8F0876FF480622D
:101B60000A60016821F48061016020202064002067
:101B7000E063606402B0BDE8F087086810F4806F2D
:101B800003D103F0DBFC202003E06FF480600860E9
:101B9000042000212022216322646164E163A16C9E
:101BA0000843A0642068016821F48061016001207D
:101BB00002B0BDE8F08700BF2DE9F04182B01D46BC
:101BC00016460F46044603F0B9FC8046206C2028D8
:101BD0000BD1002F4FF0010018BF002E02D102B030
:101BE000BDE8F081E06B012803D1022002B0BDE81E
:101BF000F0810120E0632168086810F0010F02BF46
:101C0000086840F001000860086820F4006008607F
:101C100022202064202060640020A0646685676222
:101C20000020628DCFF6FF70E0622285086840F4E4
:101C30008063084640F8143B6B1C15D00368002DE8
:101C400003F0020321D08BBB03F078FCA0EB08006B
:101C5000A8421DD82168084650F8142F12F0020F30
:101C6000F2D0228D22E000BF036813F0020F1DD1D5
:101C7000036813F0020F19D1036813F0020F15D196
:101C8000036813F0020FEFD010E07BB903F056FCAD
:101C900000202021206321646064E063A06C40F098
:101CA0002000A064012002B0BDE8F0810023002ADA
:101CB0000193036801938B690193019B03686ED0C4
:101CC000002D42D04FF6FF765A0612D4026812F069
:101CD000100F40F09D8003F031FCA0EB0800A842FB
:101CE00000F28C802168084650F8142F12F0400F43
:101CF000ECD00869616A0870606A2168013060622E
:101D0000228D013A22853242638DA3F1010363855E
:101D10004B6918BF13F0040305D10846120450F8AC
:101D2000143FD1D13BE009690170606A216801303C
:101D30006062208D421E2285608D013860850846D4
:101D4000120450F8143FBFD129E04FF6FF7200BFD4
:101D50005B064DD50869616A0870606A21680130C8
:101D60006062238D5F1E27851742638DA3F10103F7
:101D700063854B6918BF13F004030BD00969017028
:101D8000606A216801306062208D471E2785608D62
:101D90000138608508463F0450F8143FD8D1DA0670
:101DA00012D4002D48D0016811F4806F4CD103F09B
:101DB000C5FBA0EB0800A84244D82168084650F8AB
:101DC000142F12F0100FEED0002000904A690092FC
:101DD0000A6842F001020A60009A0A6822F48062EE
:101DE0000A6020212164E063606402B0BDE8F081F4
:101DF000026812F0100F0BD103F0A0FB002020218D
:101E00002063216460642168A06C40F0200008E039
:101E10006FF01002026000202022206322646064C0
:101E2000A06C0022E263A064086820F4806008606F
:101E3000012002B0BDE8F081016811F4806F03D188
:101E400003F07CFB202003E06FF48061016004203C
:101E500000212022216322646164E163A16C0843B4
:101E6000A0642068016821F480610160012002B053
:101E7000BDE8F08110B581B04FF0000CCDF800C086
:101E8000D0F840C0BCF1200F32D140F2081C4BF218
:101E9000895EC2F2000CC1F2F84EDCF800C04FEAD5
:101EA000DC0CACFB0ECE4FEA1E2C4FF0190E0CFBD7
:101EB0000EFCCDF800C000BFDDF800C0ACF1010C95
:101EC000CDF800C0DDF800C0BCF1000F15D0D0F88F
:101ED00000E0DEF818C01CF0020FEDD1D0F83CC0D5
:101EE000BCF1010F18D14FF0020C604601B010BDDB
:101EF0004FF0020C604601B010BD002120224FF0CF
:101F0000010C016302644164C163816C41F02001F2
:101F10008164604601B010BD4FF0010C0024C0F890
:101F20003CC0CFF6FF74DEF800C01CF0010F02BF0A
:101F3000DEF800C04CF0010CCEF800C0DEF800C0A6
:101F40002CF4006CCEF800C04FF0210CC0F840C05B
:101F50004FF0100CC0F844C04FF0000CC0F848C05F
:101F60004385438DC4624262C0F83CC00385C164AE
:101F7000DEF8040040F4E060CEF80400DEF8000073
:101F800040F48070CEF80000604601B010BD00BF84
:101F900010B581B04FF0000CCDF800C0D0F840C0B3
:101FA000BCF1200F32D140F2081C4BF2895EC2F224
:101FB000000CC1F2F84EDCF800C04FEADC0CACFBC0
:101FC0000ECE4FEA1E2C4FF0190E0CFB0EFCCDF876
:101FD00000C000BFDDF800C0ACF1010CCDF800C0BE
:101FE000DDF800C0BCF1000F15D0D0F800E0DEF83D
:101FF00018C01CF0020FEDD1D0F83CC0BCF1010FAD
:1020000018D14FF0020C604601B010BD4FF0020C29
:10201000604601B010BD002120224FF0010C016389
:1020200002644164C163816C41F0200181646046B7
:1020300001B010BD4FF0010C0024C0F83CC0CFF639
:10204000FF74DEF800C01CF0010F02BFDEF800C014
:102050004CF0010CCEF800C0DEF800C02CF4006C8F
:10206000CEF800C04FF0220CC0F840C04FF0100C6A
:10207000C0F844C04FF0000CC0F848C04385438D01
:10208000C4624262C0F83CC00385C164DEF804004B
:1020900040F4E060CEF80400DEF8000040F4806018
:1020A000CEF80000DEF8000040F48070CEF80000AA
:1020B000604601B010BD00BF036C202B0AD100297F
:1020C0004FF0010318BF002A01D118467047C36BB7
:1020D000012B02D10223184670470123C363D0F8B5
:1020E00000C0DCF8003013F0010F02BFDCF8003054
:1020F00043F00103CCF80030DCF8003023F4006337
:10210000CCF800302123036420234364002383643C
:10211000428541620022418DCFF6FF72C262018585
:10212000DCF8001041F48061CCF80010C363DCF8E7
:10213000040040F4E060CCF804001846704700BF8B
:10214000036C202B0AD100294FF0010318BF002A8D
:1021500001D118467047C36B012B02D102231846E8
:1021600070470123C363D0F800C0DCF8003013F0DF
:10217000010F02BFDCF8003043F00103CCF800305F
:10218000DCF8003023F40063CCF800302223036431
:102190002023436400238364428541620022418DF1
:1021A000CFF6FF72C2620185DCF8001041F4806155
:1021B000CCF80010C363DCF8040040F4E060CCF815
:1021C00004001846704700BF70B582B00546002075
:1021D0000190286C20281CD140F208104BF289563F
:1021E000C2F20000C1F2F8460068C008A0FB060673
:1021F000300A192670430190019801380190019826
:1022000050B12C68A06910F0020FF5D1E86B0128DD
:102210000FD1022002B070BD002020212863296464
:102220006864E863A86C40F02000A864012002B054
:1022300070BD01200026E863CFF6FF76206810F01D
:10224000010F02BF206840F001002060206820F4E8
:102250000060206021202864102068640020A864A9
:102260006B856B8DEE626A62002B2B85E96421D051
:10227000686B60B342F2294C42F21531002600F13E
:102280002C0EC0F6000CC0F600018EE8421004F1DE
:10229000100C11468663624604F034F918B320200E
:1022A00028646E64EE63A86C40F01000A8640120FE
:1022B00002B070BD216841F480612160216841F461
:1022C000807144F8041BE8634FF4E0601BE02020B9
:1022D000286400206864E863A86C40F08000A8646B
:1022E000012002B070BDEE632C68606840F440705D
:1022F0006060606840F400606060206840F4806066
:1023000020604FF48070216808432060002002B0F4
:1023100070BD00BF10B5846A226CD4F844E0D4F8D4
:102320002CC02068416821F440714160616B002934
:102330001CBF0023CB62A16B00291CBF0023CB6212
:1023400002F0210121291FD002F02201222908BF19
:10235000BEF1200F18D0616C002908BF10BD618D3F
:10236000012902BF016821F480610160BCF1070FFF
:10237000416821F44071416026DCBCF12A4F29D02C
:102380001CF5803F26D029E041682A2A21F400610B
:1023900041604FF00000608509D0292A0ED121202C
:1023A000206328202064204603F05EF806E0222007
:1023B000206328202064204603F058F820684168F4
:1023C00041F44071416010BDBCF1200F02D0BCF15E
:1023D000080F03D1016841F400710160416821F4E4
:1023E00080514160416821F40061416000206085B6
:1023F000A16C21B12046BDE8104003F041B8202176
:102400002164616C6064402906D10020206320466D
:10241000BDE8104003F032B8122020632046BDE82A
:10242000104003F01FB800BF806A416B00291CBF39
:102430000022CA62816B00291CBF0022CA620168A7
:102440000A6822F480620A60002120224185026429
:102450004164816C41F01001816403F011B800BF48
:1024600070B582B0054600200190286C20281CD150
:1024700040F208104BF28956C2F20000C1F2F84651
:102480000068C008A0FB0606300A192670430190B8
:10249000019801380190019850B12C68A06910F0A2
:1024A000020FF5D1E86B01280FD1022002B070BDF8
:1024B00000202021286329646864E863A86C40F048
:1024C0002000A864012002B070BD01200026E8634E
:1024D000CFF6FF76206810F0010F02BF206840F0B1
:1024E00001002060206820F4006020602220286421
:1024F000102068640020A8646B856B8DEE626A62B0
:10250000002B2B85E9641FD0A86B38B342F2294C0D
:1025100042F21531002600F12C0EC0F6000CC0F678
:1025200000018EE8421004F11001866303F0EAFF17
:1025300000B3202028646E64EE63A86C40F01000A5
:10254000A864012002B070BDE8634FF48061606848
:1025500040F4E06060604FF480701AE0202028644E
:1025600000206864E863A86C40F08000A864012043
:1025700002B070BD2C684FF44071206840F4806058
:102580002060206840F4807044F8040BEE634FF440
:102590000060226811432160216808432060002008
:1025A00002B070BDB0B50446206C202809D10029C6
:1025B0004FF0010018BF002A00D1B0BDE06B012828
:1025C00001D10220B0BD01204FF0000EE063D4F82D
:1025D00000C0DCF8000010F0010F02BFDCF80000C2
:1025E00040F00100CCF80000DCF8000020F40060AE
:1025F000CCF800002120206420206064C4F848E06A
:10260000628561620020638DCFF6FF70E0622385F2
:10261000606BD8B142F2294242F21535C0F600058E
:10262000C0F60002C0E90B5EC0E90D2E0CF11002ED
:1026300003F068FFB0B12020206400206064E063F4
:10264000A06C40F01000A0640120B0BD28202064E0
:10265000C4F844E0C4F83CE0A06C40F08000A06402
:102660000120B0BD2168086840F480600860002047
:10267000E0634A6842F440724A604A6842F4006289
:102680004A60B0BDB0B504468C46206C20280AD103
:10269000BCF1000F4FF0010018BF002A00D1B0BDFF
:1026A000E06B012801D10220B0BD01204FF0000EE7
:1026B000E0632168086810F0010F02BF086840F06D
:1026C00001000860086820F400600860222020648F
:1026D00020206064C4F848E06285C4F824C000206B
:1026E000638DCFF6FF70E0622385A06BD8B142F214
:1026F000294242F215351031C0F60005C0F600023D
:10270000C0E90B5EC0E90D2E624603F0FBFEB0B1DE
:102710002020206400206064E063A06C40F0100082
:10272000A0640120B0BD28202064C4F844E0C4F8AF
:102730003CE0A06C40F08000A0640120B0BD2168A6
:10274000086840F4806008600020E0634A6842F452
:1027500040724A604A6842F400624A60B0BD00BFFD
:102760002DE9F04383B0984617460E46044602F022
:10277000E5FE0546206C20281BD100BF206881693A
:1027800011F0020F12D002F0D9FE401B1A28F5D327
:1027900000202021206321646064E063A06C40F08D
:1027A0002000A064022003B0BDE8F083E16B0129A2
:1027B00003D1022003B0BDE8F0830DF12809012305
:1027C00099E80602E363036813F0010F02BF036890
:1027D00043F001030360036823F4006303602120D6
:1027E00043462064402060640020A06462856162EA
:1027F00000213A46608DCFF6FF71E16231462085B7
:102800002046CDE9009500F0D1F818B1012003B0C1
:10281000BDE8F0832168228D0846002A50F8147F15
:1028200075D019F1010341D04FF6FF783B0616D45D
:10283000B9F1000F00F09880016811F4806F40F04A
:102840009B8002F07BFE401B484500F2938021688C
:10285000084650F8142F12F0800FEDD0228D636AD5
:102860001746184610F8012B0A617A1E228560620D
:1028700012EA080F608DA0F101006085084650F84B
:10288000146F18BF16F0040603D107681304CDD1E6
:102890003DE05A7802330A61BA1E22856362638D75
:1028A000013B638507681304C0D130E04FF6FF7C1D
:1028B00016463A0608D400BF026812F4806F5BD156
:1028C000026812F0800FF7D0676A3B4613F8012BBD
:1028D0000A61721E2285636212EA0C0F638DA3F1F6
:1028E000010363854B6918BF13F0040303D1076824
:1028F0001304DDD10BE07A78BB1C0A61B21E22857D
:102900006362638D013B638507681304D0D17A0746
:102910001ED4B9F1000F27D019F1010208D10268C5
:1029200012F4806F28D1026812F0040FF7D00FE084
:10293000016811F4806F1FD102F000FE401B484572
:1029400018D82168084650F8142F12F0040FEFD061
:10295000086840F400700860202020640020E063D4
:10296000606403B0BDE8F083016811F4806F03D1A7
:1029700002F0E4FD202003E06FF480610160042098
:1029800000212022216322646164A26C1043A064B0
:10299000E163A06C04287FF439AF2068016841F43A
:1029A00000710160012003B0BDE8F0832DE9F0471C
:1029B00082B004460A9D0F460B9E994690462068B9
:1029C00015F1010A016841F48071016012D041697A
:1029D000002D01F0010140D0002957D102F0AEFDD9
:1029E000801BA8423CD82068416911F0010FF5D046
:1029F00010E000BF416911F0010F0BD1416911F0E6
:102A0000010F07D1416911F0010F03D1416911F0A4
:102A1000010FEFD007F0FE01BAF1000F01613FD0C6
:102A2000014651F8142F12F0020F47D1002D00F08B
:102A3000A28000BF0A6812F4806F40F0B08002F0FC
:102A40007DFD801BA84200F29C802068014651F861
:102A5000142F12F0020FEDD030E0B9B902F06EFD84
:102A600000202021206321646064E063A06C40F0BA
:102A70002000A0642068006810F4807F1CBF4FF421
:102A80000070A064032002B0BDE8F08707F0FE01EB
:102A90000161014651F8142F12F0020FC6D00DE06B
:102AA000014651F8142F12F0020F07D10A6812F4F0
:102AB000806F74D10A6812F0020FF7D000220192E1
:102AC0000A68019282690192019A0A6812F0800FE5
:102AD0001ED1002D78D0BAF1000F09D10A6812F486
:102AE000806F79D10A6812F0800FF7D010E000BF34
:102AF000086810F4806F6FD102F020FD801BA8429F
:102B000068D82068014651F8142F12F0800FEFD0DA
:102B1000B9F1010F28D04FEA18210161014651F89F
:102B2000142F12F0800F1FD1002D4DD0BAF1000FDD
:102B30000AD100BF0A6812F4806F4DD10A6812F002
:102B4000800FF7D010E000BF086810F4806F43D109
:102B500002F0F4FC801BA8423CD82068014651F8E2
:102B6000142F12F0800FEFD05FFA88F1016100207E
:102B700002B0BDE8F0870A6812F4806F0FD102F04E
:102B8000DDFC00202021206321646064E063A06CF0
:102B900040F02000A064012002B0BDE8F087026888
:102BA00042F4007202606FF480600860002020210F
:102BB000206321646064E063A06C40F00400A064C2
:102BC000012002B0BDE8F087086810F4806F03D1DF
:102BD00002F0B4FC202003E06FF480600860042061
:102BE00000212022216322646164A26C1043A0644E
:102BF000E163A06C042804D12068016841F40071ED
:102C00000160012002B0BDE8F08700BF2DE9F04F60
:102C100085B004460020984617460E46049002F000
:102C20008DFC0546206C20281BD100BF20688169DF
:102C300011F0020F12D002F081FC401B1A28F5D3CC
:102C400000202021206321646064E063A06C40F0D8
:102C50002000A064022005B0BDE8F08FE16B0129DF
:102C600003D1022005B0BDE8F08F0DF13809012332
:102C700099E80602E363036813F0010F02BF0368DB
:102C800043F001030360036823F400630360222020
:102C900043462064402060640020A0646285616235
:102CA00000213A46608DCFF6FF71E1623146208502
:102CB0002046CDE9009500F091F9002840F08A8186
:102CC000218D012910D039BB002003902068416973
:102CD0000391816903910399016841F400710160D6
:102CE000208D002840D143E12068016821F48061F3
:102CF0000160EFF3108072B60020039020684169F4
:102D00000391816903910399016841F400710160A5
:102D100062B6208D40BB2BE120680229026815D1E4
:102D200042F400610160EFF3108072B6002003905E
:102D3000206841690391816903910399016821F435
:102D40008061016062B6208D70B911E142F480614A
:102D50000160002103914169039180690390039808
:102D6000208D002800F0048140F2081A4BF2895BA4
:102D700000262327C2F2000AC1F2F84B1FFA80F89E
:102D8000B8F1030F1FD8B8F1010F4ED1206850F8E9
:102D9000141F11F0400F40F0DB80B9F1000F00F07C
:102DA000FE80016811F0100F40F0088102F0C6FBB0
:102DB000401B484500F2F980206850F8141F11F0BC
:102DC000400FEED0C4E02168084650F8142F12F0EE
:102DD000400F15D1B9F1000F00F0E180016811F04A
:102DE000100F40F0EB8002F0A9FB401B484500F2B9
:102DF000DC802168084650F8142F12F0400FEDD007
:102E00000869616A0870606A216801306062208D1B
:102E100001382085628D013A6285496911F0040FFD
:102E200040F096800104A9D1A2E0B9F1000F14D0BE
:102E300019F1010019D12068416911F0040F23D163
:102E4000416911F0040F1FD1416911F0040F1BD12A
:102E5000416911F0040FEFD016E02068406910F0CE
:102E6000040F11D102F06AFB2BE02068406910F0DA
:102E7000040F09D102F062FB401B484521D82068AD
:102E8000406910F0040FF5D00020B8F1020F25D1F1
:102E9000002840F09F80EFF3108072B62068016830
:102EA00041F4007101600069616A0870606A013074
:102EB0006062608D01386085208D0138208562B6A2
:102EC00046E02020266320646664E663A06C40F040
:102ED0002000A0640120B8F1020FD9D0002879D1D8
:102EE0002068016821F480610160EFF3108072B600
:102EF00020680069616A0870606A01306062618DF3
:102F000001396185218D01392185DAF80010C90860
:102F1000A1FB0B12110A7943049100BF04990139F6
:102F20000491049961B321684A6912F0040FF5D045
:102F30000A6842F400720A6009690170606A01302F
:102F40006062208D01382085608D0138608562B611
:102F500020680069616A0870606A01306062208DD3
:102F600001382085618D0139618501047FF406AF48
:102F7000202020640020E063606405B0BDE8F08F8D
:102F800000202021206321646064A16C41F02001B5
:102F9000A16462B6E063012005B0BDE8F08F01686E
:102FA00011F0100F0AD102F0C9FA0020202120638D
:102FB00021646064A06C40F0200008E06FF0100114
:102FC000016000202021206321646064A06C002146
:102FD000E163A064012005B0BDE8F08F2DE9F04762
:102FE00082B004460F460A9D0B9E99469046216882
:102FF00015F1010A086840F480600860086840F430
:103000008070086012D04869002D00F0010040D0A7
:10301000002857D102F092FA801BA8423CD82168C0
:10302000486910F0010FF5D010E000BF486910F0BA
:10303000010F0BD1486910F0010F07D1486910F05A
:10304000010F03D1486910F0010FEFD007F0FE0720
:10305000BAF1000F0F613FD0084650F8142F12F05C
:10306000020F48D1002D00F02D8100BF026812F43C
:10307000806F40F03B8102F061FA801BA84200F2B1
:1030800027812168084650F8142F12F0020FEDD066
:1030900031E0B8B902F052FA002020212063216407
:1030A0006064E063A06C40F02000A06420680068C9
:1030B00010F4807F1CBF4FF40070A064032002B0A6
:1030C000BDE8F08707F0FE070F61084650F8142F9F
:1030D00012F0020FC6D00EE0084650F8142F12F07E
:1030E000020F08D1026812F4806F40F0FF8002687E
:1030F00012F0020FF6D000220192026801928A6952
:103100000192019A026812F0800F21D1002D00F087
:10311000B880BAF1000F09D1026812F4806F40F054
:10312000B880026812F0800FF6D011E0016811F447
:10313000806F40F0AE8002F001FA801BA84200F2DE
:10314000A6802168084650F8142F12F0800FEDD0A9
:10315000B9F1010F29D04FEA18200861084650F84C
:10316000142F12F0800F20D1002D00F08A80BAF1C8
:10317000000F09D1026812F4806F40F08A80026863
:1031800012F0800FF6D010E0016811F4806F40F06B
:10319000808002F0D3F9801BA84278D821680846C5
:1031A00050F8142F12F0800FEED05FFA88F008610B
:1031B000084650F8142F12F0800F1FD1002D60D058
:1031C000BAF1000F0AD100BF026812F4806F60D11B
:1031D000026812F0800FF7D010E000BF016811F410
:1031E000806F56D102F0AAF9801BA8424FD82168FF
:1031F000084650F8142F12F0800FEFD00868BAF18B
:10320000000F40F48070086014D04869002D00F071
:10321000010000F08080002840F0818002F08EF9EB
:10322000801BA8423FF638AF2168486910F0010FB3
:10323000F4D00FE0486910F0010F0BD1486910F08D
:10324000010F07D1486910F0010F03D1486910F050
:10325000010FEFD047F00100BAF1000F086161D112
:103260000A4652F8140F10F0020F75D1106810F4CE
:10327000806F40F089801368002013F0020FF5D0B2
:103280007FE0016811F4806F03D102F057F920202C
:1032900003E06FF48061016004200021202221639B
:1032A00022646164A26C1043A064E163A06C0428F2
:1032B00004D12068016841F400710160012002B06E
:1032C000BDE8F087026812F4806F0FD102F036F982
:1032D00000202021206321646064E063A06C40F042
:1032E0002000A064012002B0BDE8F0870A6842F423
:1032F00000720A606FF48061016000202021206369
:1033000021646064E063A06C40F00400A0640120CC
:1033100002B0BDE8F08710B902F010F9BCE647F042
:10332000010008610A4652F8140F10F0020F13D181
:10333000002D15D0106810F4806F25D102F0FEF832
:10334000801BA84212D8216800200A4652F8143F78
:1033500013F0020FEED014E0002002B0BDE8F087B9
:10336000106810F4806F0FD102F0E8F800202021DF
:10337000206321646064E063A06C40F02000A064DE
:10338000012002B0BDE8F087086840F400700860D2
:103390006FF480601060B0E770B581B000250095D3
:1033A000056C202D24D140F20815DDE905E64BF22D
:1033B0008954C2F20005C1F2F8442D68ED08A5FB5E
:1033C0000454250A19246543009500BF009D013D62
:1033D0000095009D8DB10568AC6914F0020FF5D120
:1033E000C46B012C18D14FF0020C604601B070BDC7
:1033F0004FF0020C604601B070BD002120224FF05A
:10340000010C016302644164C163816C41F02001DD
:103410008164604601B070BD01244FF0000CC463AC
:103420002C6814F0010F02BF2C6844F001042C60DA
:103430002C6824F400642C60212404644024446437
:10344000C0F848C046850026448DCFF6FF76C66298
:10345000C16402654365C0F824E00485C0F858C023
:10346000296841F480712960C0F83CC0686840F464
:10347000E0606860604601B070BD00BF70B581B0AB
:1034800000250095056C202D24D140F20815DDE9BA
:1034900005E64BF28954C2F20005C1F2F8442D68EA
:1034A000ED08A5FB0454250A19246543009500BFC7
:1034B000009D013D0095009D8DB10568AC6914F03B
:1034C000020FF5D1C46B012C18D14FF0020C6046ED
:1034D00001B070BD4FF0020C604601B070BD00211C
:1034E00020224FF0010C016302644164C163816CCE
:1034F00041F020018164604601B070BD01244FF0AD
:10350000000CC4632C6814F0010F02BF2C6844F057
:1035100001042C602C6824F400642C6022240464D0
:1035200040244464C0F848C046850026448DCFF648
:10353000FF76C662C16402654365C0F824E0048575
:10354000C0F858C0002C296841F4806129602968BE
:1035500041F480712960C0F83CC005D068684FF024
:10356000000C40F4E0606860604601B070BD00BFD0
:103570002DE9F04385B004460020984616460F46D4
:10358000049001F0DBFF0546206C20281FD140F29B
:103590000810DDE90C134BF28952C2F20000C1F2AF
:1035A000F8420068C008A0FB0202100A192250432A
:1035B000049000BF049801380490049858B1226820
:1035C000906910F0020FF5D1E06B012811D10220B3
:1035D00005B0BDE8F08300202021206321646064F1
:1035E000E063A06C40F02000A064012005B0BDE8BD
:1035F000F08301204FF0000CE063106810F0010F21
:1036000002BF106840F001001060106820F40060F4
:1036100010602120206440206064C4F848C06385A5
:1036200061620020638DCFF6FF70E062002B23857E
:1036300021D0606B68B342F2294C42F2153E103241
:103640004FF00009C0F6000EC0F6000CC0E90BE90F
:10365000C0E90DC902F056FF40B320202064C4F831
:103660004490C4F83C90A06C40F01000A06401208D
:1036700005B0BDE8F08320202064C4F844C0C4F83D
:103680003CC0A06C40F04000A064012005B0BDE843
:10369000F0832020206400206064E063A06C40F090
:1036A0008000A064012005B0BDE8F08323203946E6
:1036B00032464346CDE900052046FFF777F9A0B131
:1036C000606B02F08DFF606B0021C16220680268B0
:1036D00022F48062026061852185016821F0010188
:1036E0000160012005B0BDE8F0830020039021684F
:1036F0004A6903928A690392039AE0634A6842F432
:1037000080724A604A6842F400624A6005B0BDE8CF
:10371000F08300BF2DE9F04385B0984616460F466A
:10372000044601F00BFF054600200490206C202881
:103730001FD140F20811DDE90C204BF28953C2F28F
:103740000001C1F2F8430968C908A1FB0313190A73
:1037500019235943049100BF049901390491049934
:1037600059B121688B6913F0020FF5D1E36B012B7E
:1037700011D1022005B0BDE8F08300202021206394
:1037800021646064E063A06C40F02000A06401202C
:1037900005B0BDE8F0830123E3630B6813F0010F6C
:1037A00002BF0B6843F001030B600B6823F4006356
:1037B0000B6022232364402363640023A364608599
:1037C00062620020638DCFF6FF70E062002B2385DC
:1037D0001DD0A06BC0B342F2294C42F2153E10310D
:1037E0004FF00009C0F6000EC0F6000CC0E90BE96E
:1037F000C0E90DC902F086FE78B320202064C4F829
:103800004490C4F83C90A06C40F01000BEE7232028
:10381000394632464346CDE900052046FFF7DEFB38
:103820000028B4D10020029021684A6902928A6976
:103830000292029A0A6842F400720A602021E06350
:10384000216405B0BDE8F08320202064002060647E
:10385000E063A06C40F0800098E7232039463246B0
:103860004346CDE900052046FFF7B8FBA0B1A06BA9
:1038700002F0B6FEA06B0021C1622068026822F44B
:103880008062026061852185016821F0010101608B
:10389000012005B0BDE8F083208D2168012804D106
:1038A000086820F48060086003E0486840F48050B5
:1038B0004860002003904A6903928A690392039A40
:1038C000E0634A6842F480724A604A6842F40062E7
:1038D0004A6005B0BDE8F0832DE9F04F83B01D4686
:1038E00090460E46044601F029FE0746206C20282B
:1038F00019D100BF2068816911F0020F18D001F0C2
:103900001DFEC01B1A28F5D30020202102252063AC
:1039100021646064E063A06C40F02000A06428464D
:1039200003B0BDE8F08F0225284603B0BDE8F08F54
:10393000E16B012904D10225284603B0BDE8F08FD0
:1039400001214FF0010B05F1010A4FF0A009E163DD
:10395000016811F0010F02BF016841F0010101602F
:10396000016821F400610160242121640021A16427
:103970000021CFF6FF71E16206F0FE0101910168BE
:10398000BAF1000F41F48071016011D04169002D3E
:1039900001F001011DD0F9B901F0D0FDC01BA84212
:1039A00000F2BE802068416911F0010FF4D013E0ED
:1039B000416911F0010F0FD1416911F0010F0BD1D5
:1039C000416911F0010F07D1416911F0010FEFD0EA
:1039D00002E0002900F0A2800199016101F0AEFD32
:1039E00007462068014651F8142F0B68266CA02E5C
:1039F0002ED09B0A43EA520212F0010228D1ADB147
:103A000001F09CFDC01BA84288BFC4F8409020680C
:103A1000014651F8142F0B68266CA02E18D09B0A73
:103A200043EA520212F00102EAD011E001F086FDF1
:103A3000C4F840902068014651F8142F0B68266C9A
:103A4000A02E05D09B0A43EA520212F00102EDD0EB
:103A5000202222640A68036843F4007312F0020F04
:103A6000036026D16FF480620A60816911F0020F51
:103A70000BD100BF0BF1010BC345FFF480AF3DE05C
:103A80002068816911F0020FF4D001F057FDC01BCE
:103A90001A28F5D3002020210125206321646064C9
:103AA000E063A06C40F02000A064284603B0BDE8AD
:103AB000F08F0025029509680291816902910299AF
:103AC000806910F0020F05D121E02068806910F0B4
:103AD000020F1CD001F032FDC01B1A28F5D30020C4
:103AE00020210125206321646064E063A06C40F024
:103AF0002000A064284603B0BDE8F08F0020012517
:103B0000E06320202064284603B0BDE8F08F202029
:103B1000E5632064284603B0BDE8F08F01F00EFD98
:103B2000002020210325206321646064E063A06CF1
:103B300040F02000A0642068006810F4807F1CBF63
:103B40004FF40070A064284603B0BDE8F08F00BFBA
:103B5000B0B582B04FF0000CCDF804C0CDF800C075
:103B6000D0F840C0BCF1200F2FD1D0F800C0DDF854
:103B700018E0DCF8004014F4007F05D1BEF1080F16
:103B800002D0BEF1010F19D140F208144BF2895551
:103B9000C2F20004C1F2F8452468E408A4FB05451C
:103BA0002C0A19256C430094009C013C0094009C55
:103BB0007CB1DCF8184014F0020FF5D1C46B012C75
:103BC00015D10221084602B0B0BD0221084602B05C
:103BD000B0BD00212022016302644164C163816C95
:103BE00041F0200181640121084602B0B0BD0124EA
:103BF000C463DCF8004014F0010F02BFDCF80040A1
:103C000044F00104CCF80040DCF8004024F40064E7
:103C1000CCF800402124046410244464002484640B
:103C20004385438DC0F82CE0C16442620385016B7B
:103C300001910199112905D1BEF52A0F02D0BEF1DB
:103C40002A4F05D1DCF8001041F48071CCF8001047
:103C50000021C163DCF8040040F4E060CCF804000B
:103C6000084602B0B0BD00BFF0B583B005460020E5
:103C700002900190286C202826D12C68089E20688C
:103C800010F4007F03D1082E01D0012E19D140F28B
:103C900008104BF28957C2F20000C1F2F8470068E1
:103CA000C008A0FB0707380A19277843019000BF16
:103CB000019801380190019848B1A06910F0020FF5
:103CC000F6D1E86B01280FD1022003B0F0BD00202F
:103CD0002021286329646864E863A86C40F0200010
:103CE000A864012003B0F0BD0120E863206810F053
:103CF000010F02BF206840F001002060206820F41E
:103D00000060206021202864102068640020A864DE
:103D10006B856B8DEE62E9646A622B85002B286BE4
:103D2000029021D0686BA8B342F2294C42F21531BF
:103D3000002700F12C0EC0F6000CC0F600018EE842
:103D4000821004F1100C11468763624602F0DAFB20
:103D500060B3202028646F64EF63A86C40F010000B
:103D6000A864012003B0F0BD206840F480602060AA
:103D70000298112805D1B6F52A0F02D0B6F12A4FC4
:103D800003D1206840F4807020600020E8634FF485
:103D9000E06033E02020286400206864E863A86CB9
:103DA00040F08000A864012003B0F0BD2C682068BA
:103DB00040F4806020600298112805D1B6F52A0FE2
:103DC00002D0B6F12A4F03D1206840F48070206001
:103DD0000020311FE8634FF440701C290ED80122E7
:103DE00002FA01F141F20102C1F2000211421FBFC9
:103DF000606840F4006060604FF4407061680843A0
:103E00006060002003B0F0BDB0B582B04FF0000C90
:103E1000CDF804C0CDF800C0D0F840C0BCF1200FF0
:103E20002FD1D0F800C0DDF818E0DCF8004014F421
:103E3000007F05D1BEF1080F02D0BEF1010F19D1EC
:103E400040F208144BF28955C2F20004C1F2F84561
:103E50002468E408A4FB05452C0A19256C4300944A
:103E6000009C013C0094009C7CB1DCF8184014F0EC
:103E7000020FF5D1C46B012C15D10221084602B006
:103E8000B0BD0221084602B0B0BD0021202201636E
:103E900002644164C163816C41F0200181640121AD
:103EA000084602B0B0BD0124C463DCF8004014F041
:103EB000010F02BFDCF8004044F00104CCF80040E0
:103EC000DCF8004024F40064CCF8004022240464B0
:103ED00010244464002484644385438DC0F82CE09E
:103EE000C16442620385016B0191418D02291AD19F
:103EF000BEF1200F02D0BEF1100F14D1019ADCF8F0
:103F00000010122A11D121F480614FF44072CCF8D4
:103F10000010DCF8001041F40061CCF800100199A9
:103F200012290BD010E0DCF8001041F480614FF44E
:103F3000E062CCF800100199122905D1BEF52A0FD4
:103F400002D0BEF12A4F05D1DCF8001041F4807197
:103F5000CCF800100021C163DCF804001043CCF859
:103F60000400084602B0B0BDF0B583B0044600209E
:103F700002900190206C202826D12568089E286890
:103F800010F4007F03D1082E01D0012E19D140F288
:103F900008104BF28957C2F20000C1F2F8470068DE
:103FA000C008A0FB0707380A19277843019000BF13
:103FB000019801380190019848B1A86910F0020FEA
:103FC000F6D1E06B01280FD1022003B0F0BD002034
:103FD0002021206321646064E063A06C40F0200035
:103FE000A064012003B0F0BD0120E063286810F058
:103FF000010F02BF286840F001002860286820F403
:1040000000602860284650F8047F27F48057076036
:1040100022272764102767640027A7646385638DC0
:10402000E662E16462622385002B216B029141D03C
:10403000618D022910D1202E01D0102E0CD1029FAB
:104040002968122F74D121F480612960296841F414
:1040500000612960696809E02968B6F12A4F41F4D6
:104060008061296018BF202E5FD1016841F4805122
:104070000160A06B002861D042F2294C42F2153158
:10408000002700F12C0EC0F6000CC0F600018EE8EF
:10409000821005F11001876302F034FA00B320208A
:1040A00020646764E763A06C40F01000A064012006
:1040B00003B0F0BD296841F480612960029912299A
:1040C00005D1B6F52A0F02D0B6F12A4F03D12968DF
:1040D00041F4807129600021E1634FF4E0613BE02D
:1040E0000298122805D1B6F52A0F02D0B6F12A4F50
:1040F00038D12068016841F4807101604FF440714B
:104100000020E063301F1C2824D8012202FA00F0AE
:1041100041F20102C1F2000210421BD0206850F8A7
:10412000042F42F40062026016E0102E9DD0A0E73A
:1041300041F480602860A06B00289DD1202020647D
:1041400000206064E063A06C40F08000A064012067
:1041500003B0F0BD20680430026811430160002004
:1041600003B0F0BD4FF48071CAE700BFD0F840C083
:104170000CF0280CBCF1280F0CD100294FF0010CD9
:1041800018BF002A01D160467047D0F83CC0BCF18E
:10419000010F03D14FF0020C6046704780B581B02B
:1041A0004FF0010CC0F83CC0D0F800E0DEF800C0D1
:1041B0001CF0010F02BFDEF800C04CF0010CCEF87D
:1041C00000C0DEF800C02CF4006CCEF800C04FF048
:1041D000290CC0F840C04FF0200CC0F844C04FF08C
:1041E000000CC0F848C042854162418DC362018520
:1041F000CDF800C0DEF814100091DEF81810009120
:104200000099C0F83CC0DEF8040040F4E060CEF84D
:10421000040001B0BDE8804060467047F0B581B051
:1042200004461E4617460D46206C00F0280028283C
:104230000AD1002D4FF0010018BF002F01D101B0AD
:10424000F0BDE06B012802D1022001B0F0BD0120D9
:10425000E0632168486820F440704860206C2A2898
:1042600013D1486810F4006F27D0A06B28B34A68B8
:1042700022F400624A6044F27131C0F600018163A9
:1042800002F0AEF9C8B1A06B15E0206C292814D15A
:10429000486810F4006F10D0486820F4006048604F
:1042A000606B50B144F27131C0F60001816302F0DD
:1042B00097F910B1606B816B88472168002208680C
:1042C00010F0010F02BF086840F0010008600868A4
:1042D00020F4006008602920206420206064A2642B
:1042E00067856562638DE6622385606BE8B142F2A3
:1042F000294742F21536C0F60006C0F60007C0E9AD
:104300000B62C0E90D7201F11002294602F0FAF8C1
:10431000B0B12020206400206064E063A06C40F015
:104320001000A064012001B0F0BD28202064626468
:10433000E263A06C40F08000A064012001B0F0BDF9
:104340002168086840F480600860002000904A6995
:1043500000928A690092009AE0634A6842F44072CF
:104360004A604A6842F400624A6001B0F0BD00BF92
:1043700010B582B000214BF28952019140F2081130
:10438000C1F2F842806AC2F20001D0F840C0096868
:10439000C908A1FB0212110A23225143019100BF57
:1043A000019941B10199013901910168096811F43C
:1043B000007FF5D103E0816C41F020018164446B02
:1043C0004FF0000E002C1CBF0021E162816B002920
:1043D0001CBF0022CA62002C0268136823F48063A9
:1043E0001360A0F82AE018BFC4F838E000291CBF09
:1043F00000238B63116821F001011160016C6029B9
:1044000008D12021016400214164816401F03AF85F
:1044100002B010BD0CF0280128290FD1116841F01D
:1044200001011160116841F4806111600021016394
:104430002821016401F024F802B010BD202101649C
:104440000021416401F01CF802B010BDD0F840C05A
:104450000CF0280CBCF1280F0CD100294FF0010CF6
:1044600018BF002A01D160467047D0F83CC0BCF1AB
:10447000010F03D14FF0020C6046704780B581B048
:104480004FF0010CC0F83CC0D0F800E0DEF800C0EE
:104490001CF0010F02BFDEF800C04CF0010CCEF89A
:1044A00000C0DEF800C02CF4006CCEF800C04FF065
:1044B0002A0CC0F840C04FF0200CC0F844C04FF0A8
:1044C000000CC0F848C042854162418DC36201853D
:1044D000CDF800C0DEF814100091DEF8181000913D
:1044E0000099C0F83CC0DEF8040040F4E060CEF86B
:1044F000040001B0BDE8804060467047F0B581B06F
:1045000004461E4617460D46206C00F02800282859
:104510000AD1002D4FF0010018BF002F01D101B0CA
:10452000F0BDE06B012802D1022001B0F0BD0120F6
:10453000E0632168486820F440704860206C2A28B5
:1045400013D1486810F4006F27D0A06B28B34A68D5
:1045500022F400624A6044F27131C0F600018163C6
:1045600002F03EF8C8B1A06B15E0206C292814D1E8
:10457000486810F4006F10D0486820F4006048606C
:10458000606B50B144F27131C0F60001816302F0FA
:1045900027F810B1606B816B88472168002208689A
:1045A00010F0010F02BF086840F0010008600868C1
:1045B00020F4006008602A20206420206064A26447
:1045C00067856562638DE6622385A06BE0B142F288
:1045D000294742F215361031C0F60006C0F6000732
:1045E000C0E90B62C0E90D722A4601F08BFFB0B141
:1045F0002020206400206064E063A06C40F0100084
:10460000A064012001B0F0BD282020646264E26350
:10461000A06C40F08000A064012001B0F0BD2168D2
:10462000086840F480600860002000904A690092A9
:104630008A690092009AE0634A6842F400624A6024
:104640004A6842F440724A6001B0F0BD016C202912
:104650001CBF02207047282101640068016811F026
:10466000010F02BF016841F001010160016841F4DE
:1046700080610160416841F44071416000207047F1
:104680000146086C28281CBF022070470A68086C85
:104690004B6C00F0030018430863202008640020DE
:1046A0004864116821F480611160516821F44071FF
:1046B0005160704710B50168436C01248A69102B62
:1046C0001CD112F0020219D0C26B012A02BF0224CF
:1046D000204610BD00246022046302640A6822F4AC
:1046E00080620A600A6842F400720A6044854A687F
:1046F00022F4E0624A60C46300F002F8204610BD74
:1047000010B50446216C606C22293DD1A0F1400215
:104710001038B2FA82F2B0FA80F052094009104320
:1047200032D02068026822F4006202604268602988
:1047300006D012F4006103D12021216400216164BC
:1047400000212163416811F4006F2AD1216C602996
:104750004CD1202121640021A164416911F0400F56
:1047600006D00069616A0870616A2068013161627F
:10477000016821F001010160204600F083FEA06C79
:1047800010F00F0F60D164E001F0280028283FD11D
:1047900000202063282020642068416811F4006F05
:1047A000D4D0416821F400614160606B416A012905
:1047B00034D144F27131A06BC0F60001816301F085
:1047C0000FFFE8B32068416911F0400F06D000697F
:1047D000616A0870616A206801316162016821F0D4
:1047E0000101016020202064A06B27E0416911F0E5
:1047F000400F05D00069616A0870606A013060622C
:10480000204600F03DFEA06C10F00F0F1CD120E000
:104810002068426860297FF48CAF91E744F27131DF
:10482000C0F60001816301F0DBFE48B12068016839
:1048300021F00101016020202064606B816B8847BA
:10484000A06C10F00F0F04D02068416821F4E061E3
:104850004160216CA06C282918BF10BD10F0040025
:104860000DD000202021CFF6FF70E06200202063F1
:10487000216460642046BDE8104000F0FBBD10BD1F
:104880002DE9F04182B00446D4F80080C6465EF8B7
:10489000043FE06A666C226C402E01D0102E21D1BC
:1048A000D8F81810D8F8145015F0010F63D1B0F1F2
:1048B0002A4F00F00482B0F52A0F00F0008213F4B2
:1048C00000704FF0010787EA502C18BF15F0080060
:1048D00055D0E06CC0B2C8F81000606B002840F002
:1048E000008100E1A06C00280CBFD8F8181000214E
:1048F000D8F8146013F4007518BF16F0020040F0E9
:10490000A580002D18BF16F0100040F0098142F07C
:10491000080103F48060292940F02881002800F074
:10492000948106F08400802840F08F81206C618D96
:10493000002900F0C481616A292811F8012BC8F808
:104940001020628DA2F1010262856162618D08BF53
:10495000002940F0B481DEF8000020F48060CEF839
:1049600000002120206328202064204602B0BDE8FA
:10497000F04100F079BD980532D44FF0010CBCF144
:10498000000F33D115F0020030D0606CE26A236B67
:10499000216C222940F0B880A16D402808BF002971
:1049A00000F0B280A06D002840F08C812069B0F545
:1049B000404F40F0878100200190D8F8140001900A
:1049C000D8F8180001900198D8F8000040F48070E1
:1049D000C8F80000A06D0130A06502B0BDE8F0810C
:1049E000E06AB0F52A0F55D1012058E0DEF800004A
:1049F000490700F4006000F1E780002840F05F8183
:104A0000580540F1F98105F04400402840F0F48158
:104A1000206C222840F05381608D0428C0F0C682AB
:104A2000D8F81000616A0870608D01386085606A8E
:104A300001306062608D032840F041812068416848
:104A400021F48061416002B0BDE8F081A06C0028D3
:104A500018BFD8F81810206C00F02800282840F063
:104A6000D580DEF8000011F0800F20F48060CEF8D1
:104A7000000004F1180008BF04F10C0002880020B7
:104A8000E063012020EA9101204602B0BDE8F04138
:104A900000F0EEBCE06AB0F12A4F01D10820E062DC
:104AA000606C40280CD1A06DE16C01F0FE01002883
:104AB00018BF41F00101C8F8101002B0BDE8F08144
:104AC0002069B0F5804F40F0AE80206CE16C01F0C1
:104AD000FE01212818BF41F00101C8F81010606BD9
:104AE00008B1C06A38B9A06B002800F0E880C06A3D
:104AF000002800F0E480DEF8000040F40060CEF80A
:104B0000000002B0BDE8F08100200190D8F8140048
:104B10000190D8F818000190019802B0BDE8F0812A
:104B2000256CD8F8040020F4E060C8F804000020E8
:104B30000190D8F814000190D8F8000040F001006E
:104B4000C8F800000198D8F8000020F48060C8F888
:104B50000000D8F8040010F4006F40F0838004F1E6
:104B60002A063088002840F0F78018E1002800F07D
:104B7000A08006F04400402840F09B80206C618DAE
:104B8000002900F09C80D8F81010626A2A28117061
:104B9000618DA1F101016185616A01F1010161622B
:104BA000618D08BF002940F08A802068416821F4A7
:104BB000806141602220206328202064204602B0CA
:104BC000BDE8F04100F052BC002878D1580540F112
:104BD000348105F08400802840F02F81226C616CC4
:104BE000238DE06A212A08BF002B00F0BE81212A14
:104BF00003D0222A08BF402961D1608D002800F02F
:104C00005482606C402800F0358225E0002001903D
:104C1000D8F814100191D8F8181001910199E063A7
:104C200002B0BDE8F081A06D002800F0DA80A06D30
:104C3000012844D1E06C062101EAD01040F0F100D7
:104C4000C8F8100002B0BDE8F081002D18BF16F0C2
:104C5000040034D0608D90B3606A10F8011BC8F86E
:104C60001010E3E045F008002A2850D1A06B04F1B1
:104C70002A06016849686185618D00291EBFA16C03
:104C800041F00401A164DEF8001021F40061CEF8C7
:104C9000001002F02DF801285CD044F27131A06BB5
:104CA000C0F60001816301F09BFC002852D0A06B8C
:104CB0004EE0002D18BF16F0040040F0008102B055
:104CC000BDE8F081608D70B1608D012840F00881F1
:104CD000202A18BF082A40F0D281D8F8000020F41A
:104CE0008060C8F8000000200190D8F814000190FE
:104CF000D8F8180001900198D8F8000040F400702E
:104D0000C8F800000020A06502B0BDE8F081606B2B
:104D100004F12A06016849686185618D00291EBF7A
:104D2000A16C41F00401A164DEF8001021F40061DF
:104D3000CEF8001001F0DCFF01280BD044F27131F5
:104D4000606BC0F60001816301F04AFC10B1606B3A
:104D5000816B8847308810B32068416911F0040FD7
:104D600009D00069616A0870616A20680131616276
:104D7000618D01396185416911F0400F08D00069EA
:104D8000616A0870606A01306062608D0138608518
:104D9000308800281EBFA06C40F00400A064A06C06
:104DA00020B1204602B0BDE8F041A9E42A2D06D189
:104DB0000020206328202064204600F057FB206C50
:104DC00028286BD100202021CFF6FF70E062002060
:104DD000206321646064204602B0BDE8F04100F029
:104DE00049BBE06C062101EAD01040F0F000C8F8A1
:104DF000100002B0BDE8F08105F00400012181EA55
:104E0000900050EA0C007FF45AAFE16A608D0428EC
:104E100040F01781D8F8040020F48060C8F804003E
:104E2000D8F81000616A0870606A01306062608DB5
:104E30000138608502B0BDE8F08105F00400012171
:104E400081EA900050EA0C007FF439AF212A40F04B
:104E50000E81E16A206C21287FF431AF608D00283B
:104E60007FF4FAAEDEF8000011F5803F20F4E06038
:104E7000CEF8000018BF082940F0BF81D8F8000024
:104E8000202140F40070C8F8000000202063216455
:104E9000616C6064402940F0558181E0206B222DD7
:104EA00018BF22287FF40BAF00202021206321644B
:104EB0006064204602B0BDE8F04100F0D7BA608DD2
:104EC00000283FF4FCAED8F81000616A0870606AF0
:104ED00001306062608D0138608502B0BDE8F0810C
:104EE000618DD8F8000002291ED1102A00F230810D
:104EF000012114239140C0F20103194200F02881DE
:104F000040F48060C8F8000000200190D8F8140038
:104F10000190D8F8180001900198DEF8000010F414
:104F2000006F00F042812BE140F48060C8F800007F
:104F3000D8F8040010F4006F00F0ED80501E1F2818
:104F400008D8012101FA00F048F28101C8F20001FD
:104F5000084203D112F5803F40F0DD80DEF800000A
:104F600040F48050CEF80000D5E0DEF8001010F5D7
:104F7000803F21F4E061CEF8001018BF082840F00F
:104F8000D880D8F80000202140F40070C8F8000054
:104F9000002020632164616C6064402940F0D2806D
:104FA000204602B0BDE8F04100F066BAE16A01288F
:104FB0003FF685AE02293FF482AE00204BF28951C4
:104FC000019040F20810C1F2F841C2F200000068FE
:104FD000C008A0FB0101080A00EB800001900198C5
:104FE000013801900198002800F0E480D8F8000012
:104FF00010F4007FF3D1D8F8000020F48060C8F8E6
:105000000000D8F8040020F4E060C8F80400D8F8E4
:105010001000616A0870608D01386085202020646E
:10502000606A013060620020616C6064402900F0B9
:105030000E8112202063204602B0BDE8F04100F04E
:1050400011BA608D032839D1DEF80000022920F45E
:105050008060CEF800003FF4E3AE04293FF4E0AEF8
:10506000D8F8000020F48060C8F80000D8E6402E90
:105070007FF425AE204602B0BDE8F041EEE012F527
:10508000803F32D1D8F8000020F48060C8F80000DA
:10509000D8F8040010F4006F3FF425AED8F80000F3
:1050A00020F48060C8F8000035E0DEF8000020F44D
:1050B0008060CEF8000002B0BDE8F081608D02286B
:1050C0007FF4AEAE481E0F2800F29B80DFE800F0B0
:1050D0000890999099999999999999999999990874
:1050E000D8F8000020F480608FE0012A02D0122B53
:1050F0003FF4F3ADD8F80000022A40F480610B467B
:1051000018BF20F48063042A08BF0B46102A08BF8A
:105110000B46C8F8003000200190D8F81400019028
:10512000D8F81800019001980020A06502B0BDE8F1
:10513000F08120283FF425AF112020630020606417
:1051400020202064204602B0BDE8F04100F088B97C
:1051500040F40060C8F8000000200190D8F8140066
:105160000190D8F8180001900198D8F8000020F4B8
:105170008060C8F80000DEF8000010F4006F14D062
:10518000501E1F2808D8012101FA00F048F28101C1
:10519000C8F20001084202D112F5803F05D1DEF8C5
:1051A000000040F48050CEF800000020A06502B05E
:1051B000BDE8F081A06C40F02000A064D8F80400A5
:1051C00020F4E060C8F80400D8F81000616A0870A4
:1051D000608D0138608520202064606A0130606243
:1051E00000206064204602B0BDE8F04100F048B9FC
:1051F000D8F8000040F4806007E020293FF43EAE7C
:105200009AE7D8F8000040F40070C8F80000D8F819
:105210001000616A0870616A20684A1C6262628DCF
:10522000013A628500694870616A206801316162F3
:10523000618D01396185416821F440714160202010
:1052400020640020616C606440297FF4F2AE20632A
:10525000204602B0BDE8F04100F010B9016C826D4B
:1052600052B1826D012A17D10168026DD2B20A6172
:10527000816D0131816570470168426D036D012ABE
:1052800018BF1B0ADAB20A614FF0010108BF022100
:10529000826D114481657047826D022A18BF704784
:1052A000222908D101680A6842F480720A60816D7F
:1052B000013181657047428D21290AD14AB1426A84
:1052C000016812F8013B0B614262418D0139418551
:1052D0007047428D212908BF002A00D0704701681D
:1052E0004A6822F4E0624A600A6842F400720A6086
:1052F0000021202201630264416400F0BDB800BFB8
:10530000F0B581B0044620684669426806EA0201A9
:10531000C905616C35D56FF480730125436103685D
:1053200043F40043036002F48077B20506D5002FF2
:105330001EBF6FF40072426145F00205720515D57B
:10534000A7B1628D236CD4F830C0202908BF002A91
:105350001DD06FF4806245F004054029426101D000
:10536000102903D1016841F40071016030056AD54C
:10537000002F68D020686FF4006145F00805416196
:1053800065E0002502F48077B205D0D4D6E743F07B
:10539000080129290CD0282B08BFBCF1210F07D008
:1053A0006FF4806145F0040541613005E0D44AE0C6
:1053B000216CE26A282924D1A2F12003083AB3FA29
:1053C00083F3B2FA82F25B0952091A4319D0002121
:1053D000CFF6FF71E162416821F4E06141606FF452
:1053E00080614161016821F4806101600020202119
:1053F000206321646064204600F03CF83005B7D497
:1054000021E021291AD10021CFF6FF71E16221218B
:1054100021632021216400216164416821F4E0615D
:1054200041606FF480614161016821F48061016035
:10543000204600F019F830059AD404E06FF480613A
:105440004161300594D4002D04BF01B0F0BDA06CC3
:105450002843A064204601B0BDE8F040FFF750B9F2
:10546000704700BF704700BF704700BF704700BF64
:10547000704700BF704700BF704700BF704700BF54
:10548000704700BF704700BF006C7047406C7047AA
:10549000806C704780B542F20000C4F202000168DF
:1054A00041F010010160032001F026FC002000F013
:1054B00005F8FBF77DFB002080BD00BF70B540F212
:1054C000080604464FF47A71C2F200067068B1FB18
:1054D000F0F040F20811C2F200010968B1FBF0F0EF
:1054E00001F084FC01250F2C08D838B94FF0FF30AB
:1054F00021460022002501F00FFC3460284670BDD3
:10550000704700BF80B541F20C004FF0FF31002220
:10551000C4F20200016042600160026000F002F823
:10552000002080BD704700BF40F20800C2F20000BA
:105530004168826811448160704700BF40F20800F2
:10554000C2F200008068704740F20800C2F200001A
:1055500000687047B0B540F20804C2F20004656804
:10556000854207D060602068FFF7A8FF00281CBFB5
:105570006560B0BD0020B0BD40F20800C2F200007E
:1055800040687047B0B50446FFF7D8FF054640F2C3
:105590000800611CC2F20000406818BF044400BF4C
:1055A000FFF7CCFF401BA042FAD3B0BD4EF2100073
:1055B000CEF20000016821F002010160704700BFD7
:1055C0004EF21000CEF20000016841F002010160CD
:1055D000704700BF40F60000C0F20110704700BFE6
:1055E00042F20000CEF204000068000C704700BFD9
:1055F00042F20000CEF2040000686FF31F307047E3
:105600004FF2E870C1F6FF70006870474FF2EC701F
:10561000C1F6FF70006870474FF2F070C1F6FF707E
:105620000068704742F20400CEF20400016841F0C5
:1056300001010160704700BF42F20400CEF2040095
:10564000016821F001010160704700BF42F20400CF
:10565000CEF20400016841F002010160704700BF12
:1056600042F20400CEF20400016821F00201016060
:10567000704700BF42F20400CEF20400016841F01E
:1056800004010160704700BF42F20400CEF2040042
:10569000016821F0040101607047000070B5FFF758
:1056A0004DFF41F200060446C4F20206306840F0A5
:1056B00001003060306810F0020F05D1FFF73EFFA7
:1056C000001B0228F6D952E03068102161F3C700B0
:1056D0003060FFF733FF044600207060706810F000
:1056E0000C0F0AD041F28835FFF728FF001BA842B3
:1056F0003DD8706810F00C0FF6D140F2081041F25E
:105700000021C2F20000C0F27A01016040F20800FC
:10571000C2F200000068FFF7D1FE00281EBF01247E
:10572000204670BDFFF70AFF0446306820F0807005
:10573000306000BF306810F0007F05D0FFF7FEFE3C
:10574000001B0228F6D912E000247460FFF7F6FE71
:105750000546306820F41020306000BF306810F437
:10576000003F07D0FFF7EAFE401B6428F6D9032468
:10577000204670BD306820F480203060706A40F0B0
:10578000807070622046B46070BD00BF2DE9F043A8
:1057900083B00446002C00F0A281207841F2000979
:1057A00041F22007C4F20209C4F20207C0075ED02A
:1057B00057F81C0C00F00C0004281DD057F81C0CE6
:1057C00000F00C00082804D157F81C0C10F4803F9E
:1057D00012D16068C0B1B0F5803F08D0D9F8001090
:1057E000B0F5A02F2BD141F48020C9F80000D9F8E2
:1057F000000040F480302AE0D9F8000010F4003FA7
:1058000035D0606898BB6AE1D9F8000020F4803098
:10581000C9F80000D9F8000020F48020C9F8000081
:10582000FFF78CFE054600BFD9F8000010F4003FDA
:105830001DD0FFF783FE401B6428F5D9A4E121F4B5
:105840008030C9F80000D9F8000020F48020C9F8A1
:105850000000FFF773FE0546D9F8000010F4003F82
:1058600005D1FFF76BFE401B6428F5D98CE1207849
:10587000800739D557F81C0C10F00C0F0AD057F8D8
:105880001C0C00F00C0008280ED157F81C0C10F46A
:10589000803F09D1D9F8000010F0020F1BD0206919
:1058A000012840F01C8116E021690020C4F242204A
:1058B000002900F0CA8001210160FFF73FFE054684
:1058C000D9F8000010F0020F05D1FFF737FE401B9A
:1058D0000228F5D958E1D9F80000616920F0F800F4
:1058E00040EAC100C9F80000207800074CD5A16942
:1058F0000020C4F24220B1B30121C0F88014FFF7A8
:105900001DFE0546786810F0020F05D1FFF716FE60
:10591000401B0228F6D937E140F2081044F6D35173
:10592000C2F20000C1F262010068A0FB0101480A56
:10593000029000BF00BF0298411E0028029123D0B0
:1059400000BF0298411E002802911DD000BF02989E
:10595000411E0028029117D000BF0298411E002866
:105960000291E7D110E00021C0F88014FFF7E6FDB6
:10597000054600BF786810F0020F05D0FFF7DEFD86
:10598000401B0228F6D9FFE02078400740F19080C4
:1059900057F8040C10F0805F0ED157F8040C4FF04C
:1059A000010840F0805047F8040C57F8040C00F050
:1059B00080500190019801E04FF0000846F2000687
:1059C000CFF6FE7659F8060010F4807F13D159F80F
:1059D000060040F4807049F80600FFF7AFFD054669
:1059E00059F8060010F4807F05D1FFF7A7FD401B92
:1059F0006428F5D9C8E0E06858B1012805D03968B5
:105A0000052833D141F004003860386840F00100C7
:105A100032E0386820F001003860386820F0040077
:105A20003860FFF78BFD0546386810F0020F36D05E
:105A300041F28836FFF782FD401BB04200F2A4809D
:105A4000386810F0020FF5D129E000210160FFF75E
:105A500075FD0546D9F8000010F0020F3FF444AF81
:105A6000FFF76CFD401B0228F4D98DE021F0010006
:105A70003860386820F004003860FFF75FFD0546A5
:105A8000386810F0020F0AD141F28836FFF756FD50
:105A9000401BB04278D8386810F0020FF6D0B8F149
:105AA000000F1EBF57F8040C20F0805047F8040C7C
:105AB000E669002E64D057F81C0C00F00C00082892
:105AC00011D1012E0BD057F81C0C216A00F4803242
:105AD0008A4204D1616A00F47010884250D00120DB
