:020000040800F2
:10000000904D0020010100080509000809090008B9
:100010000D0900081109000815090008000000007A
:1000200000000000000000000000000019090008A6
:100030001D0900080000000021090008250900082A
:100040001B0100081B0100081B0100081B01000820
:100050001B0100081B010008D50B00081B0100084C
:100060001B0100081B0100081B0100081B01000800
:100070001B0100081B0100081B0100081B010008F0
:1000800029090008350900081B0100081B010008A8
:100090001B0100081B0100081B01000841090008A2
:1000A0001B0100081B0100081B0100081B010008C0
:1000B0001B0100081B0100081B0100081B010008B0
:1000C0001B0100081B0100081B0100081B010008A0
:1000D0001B01000849090008890B00081B010008E2
:1000E000CD0B00081B0100081B010008DFF80CD035
:1000F00014F038FF0048004725010008904D00200B
:100100000648804706480047FEE7FEE7FEE7FEE7B1
:10011000FEE7FEE7FEE7FEE7FEE7FEE79D8F00084D
:10012000ED000008B0B590B004F076FD00244FF467
:100130008030092102250B94CDE9094407900691EE
:10014000012108940A910C91CDE90D504FF4E01073
:100150000F9006A804F0E8FE0F200221CDE901056A
:100160004FF480600394CDE9040401A805F0DEF8A3
:1001700000F078F800F04AF900F0F6F900F09EFA85
:1001800000F066F900F0D8F900F078FA17200021A5
:10019000002206F061F8172006F090F812F002F83D
:1001A00040F26A61C2F20001087013F049FA40F2AD
:1001B0006961C2F2000108700FF030FC40F2686122
:1001C000C2F20001087042F65C60C2F200000168F1
:1001D000CA6842F01002CA6040F2D841C822C2F296
:1001E000000108F0C7F800200FF0A8F900F0A4F90A
:1001F0000FF0E8F942F6106040F2A0510122C2F27D
:100200000000C2F2000107F0EDFF09F0B9F900BFEC
:10021000FEE700BFB0B590B000244FF48030092154
:1002200002250B94CDE90944079006910121089419
:100230000A910C91CDE90D504FF4E0100F9006A8F3
:1002400004F072FE0F200221CDE901054FF4806019
:100250000394CDE9040401A805F068F810B0B0BD1E
:10026000704700002DE9F04F85B041F218004FF0C3
:10027000000840F600050022CDE90388C4F2020020
:10028000C4F20105016841F010010160016801F04C
:10029000100100910099016841F02001016001689E
:1002A00001F0200100910099016841F00401016012
:1002B000016801F0040100910099016841F0080112
:1002C000016040F20111006800F008000090009801
:1002D000284605F0A9FB284648F210010122012713
:1002E00005F0A2FB05F5806401210022204605F0FF
:1002F0009BFB20461821012205F096FB4FF00309D5
:1003000001AE4FF46040CDF80890019005F5006013
:10031000314605F0DBF911204FF0020B3146CDE9F3
:1003200001702846CDF80C80CDF810B005F0CEF95C
:1003300041F20200CDF8089031460190284605F0C0
:10034000C5F910200297314601902846CDE903896E
:1003500005F0BCF920463146CDE90177CDE9037BB4
:1003600005F0B4F94FF60640CDF80880314601900B
:100370002046039705F0AAF94FF4807002973146A2
:1003800001902846CDE903BB05F0A0F94FF40040E9
:100390000297314601902846CDE9038B05F096F986
:1003A00040F2000A4FF400603146C1F2110ACDF864
:1003B00008A001902846039705F088F918200297B5
:1003C000314601902046CDE9038B05F07FF92020CE
:1003D000CDF808A0314601902046CDF80CB005F0CC
:1003E00075F94FF44070CDF80890314601902046E1
:1003F00005F06CF928200021002205F02DFF2820AF
:1004000005F05CFF05B0BDE8F08F000080B582B05C
:1004100041F214000022C4F20200016841F001011F
:1004200001600021006800F0010001900198102097
:1004300005F012FF102005F041FF112000210022DD
:1004400005F00AFF112002B0BDE8804005F036BF7C
:1004500080B542F64C5041F6802145F2004200231F
:100460004FF4804CC2F20000C0F20601C4F2000258
:100470000362C0E90021C0E90233C0E904C3C0E956
:10048000063300F0D1FB002814BFBDE8804080BDDA
:10049000FFF7E6BE10B586B00021CDE90411CDE925
:1004A0000211016845F20040C4F20000814201D00F
:1004B00006B010BD41F2180400F53840C4F2020441
:1004C000216841F008012160216801F008010191D3
:1004D000019912210391C02102910321059102A9E2
:1004E00005F0F4F8606840F400106060606800F4A3
:1004F00000100190019806B010BD00BF10B540F685
:1005000000440068C4F20104A4F53841884218BFD1
:1005100010BD41F21C00C4F20200016821F4001178
:1005200001602046402105F0E5F920468021BDE824
:10053000104005F0DFB9000080B542F6A85043F244
:10054000000204214FF47A73C2F20000C4F20002E8
:10055000C0E90021836005F091FF002814BFBDE8C9
:10056000804080BDFFF77CBE80B542F6B45043F2B8
:1005700000024FF4827100234FF4007C4FF0200EF4
:10058000C2F20000C4F20102C0E900210A21C0E960
:100590000233C0E90433C0E906CEC0E90833C0E93C
:1005A0000A3105F09DFF002814BFBDE8804080BDE2
:1005B000FFF756BE70B586B0002640F60004CDE9C0
:1005C0000466CDE90266C4F20104006804F5205116
:1005D000884201D006B070BD41F2180002ADC4F2ED
:1005E0000200016841F480510160016801F480510A
:1005F00001910199016841F00401016029460068F8
:1006000000F004000190019802200390A0200290C5
:1006100003200590204605F059F84020039629460E
:10062000029001200490204605F050F806B070BDFD
:10063000014640F60000C4F20100096800F52052AE
:10064000914218BF704741F21801C4F202010A68D2
:1006500022F480520A60E02105F04CB980B582B0E6
:10066000019042F65C6001A901224FF6FF73C2F2CD
:10067000000007F06BFC019802B080BD80B542F627
:10068000106043F600024FF4165100234FF00C0C9B
:10069000C2F20000C4F20102C0E90021C0E9023345
:1006A000C0E9043CC0E9063307F066FA002814BF2D
:1006B000BDE8804080BDFFF7D3BD00BF80B542F6E6
:1006C0005C6044F6807144F2004200234FF00C0C51
:1006D000C2F20000C0F21201C4F20002C0E900211F
:1006E000C0E90233C0E9043CC0E9063307F044FA2C
:1006F000002814BFBDE8804080BDFFF7B1BD00BF3A
:100700002DE9F04385B00027044644F20041CDE9CD
:100710000377CDE90177C4F200012068884241D017
:1007200043F60001C4F20101884240F0A88041F282
:10073000180040F6000401ADC4F20200C4F2010446
:10074000016841F480410160016801F48041009139
:100750000099016841F0040101602946006800F039
:10076000040000900098022002904FF40070019065
:1007700003200490204604F0A9FF00204FF480617C
:100780000290019103902046294604F09FFF252006
:100790000021002205F060FD252005F08FFD05B049
:1007A000BDE8F08341F2180040F6000501AEC4F246
:1007B0000200C4F20105416841F400314160416822
:1007C00001F4003100910099016841F004010160D9
:1007D0003146006800F0040000900098022002906A
:1007E0000420019003200490284604F06FFF0820A5
:1007F0000297314601902846039704F067FF42F6BE
:10080000BC4540F26C094FF080084FF40050C2F232
:100810000005C4F20209C5E90097C5E90278C5E9F7
:100820000477C5E90670284605F02EF9002818BFA0
:10083000FFF716FD42F6045600204FF4405109F12F
:1008400014021023A563AC62C2F20006C6E90023BD
:10085000C6E90208C6E90400C6E90601304605F00B
:1008600013F9002818BFFFF7FBFC26200021002207
:100870006663B46205F0F0FC262005F01FFD05B0AC
:10088000BDE8F08310B5044644F200412068C4F28C
:10089000000188421BD043F60001C4F201018842E6
:1008A00018BF10BD41F21800C4F20200016821F423
:1008B0008041016040F600004FF4C061C4F20100C5
:1008C00005F018F82520BDE8104005F007BD41F2FD
:1008D0001800C4F20200416821F40031416040F682
:1008E00000000C21C4F2010005F004F8A06B05F033
:1008F00009F9606B05F006F92620BDE8104005F007
:10090000EDBC0000704700BFFEE700BFFEE700BF80
:10091000FEE700BFFEE700BF704700BF704700BFA3
:10092000704700BF04F0C6B942F6BC40C2F20000F6
:1009300005F072BB42F60450C2F2000005F06CBB39
:10094000202005F093B800BF42F61060C2F200000C
:1009500008F0FEB843F65C504EF21401C2F20000FB
:10096000CEF2000100680A684B680968D21A4FF499
:100970007A735A43B2FBF1F100FB03100021704778
:1009800080B542F6B04043F65C514FF47A7E0023C6
:10099000C2F20000C2F2000100680968081A42F6BB
:1009A000B441C2F2000109684018A0FB0EC143F136
:1009B000000303FB0E114EF21403CEF2000318687D
:1009C0005A68801A1A6800FB0EF0B0FBF2F010EBC8
:1009D0000C0041F1000180BD43280AD0502812D0FC
:1009E000472819D142F6A4414722C2F200010A70F9
:1009F00012E042F6A441C2F200014A78502A0BD11B
:100A000043220A7119E042F6A441C2F200010A78B9
:100A1000472A04BF50224A7042F6A441C2F20001A4
:100A20000979432919D12C2807D142F69242C2F202
:100A3000000211780131117004E042F69241C2F2D5
:100A400000010978C9B2092908D0022919D0012961
:100A500003D140F002012E2905D1704740F0020178
:100A60002E2908BF704742F6914142F69443D03098
:100A7000C2F20001C2F200030A789854501C0870B8
:100A800070472DE9F04142F6A4410020C2F2000176
:100A90000881C1E9000042F69241C2F200010870EB
:100AA00042F69141C2F20001087042F69441C2F24E
:100AB00000018A78CB7891F804E091F805C043EA08
:100AC000020444EA0E0454EA0C0409D00C78092C00
:100AD00006D84D78092D03D8092A98BF092B05D9C6
:100AE0000881C1E90000BDE8F0417047BEF1090F7F
:100AF00098BFBCF1090FF3D843F65C5642F6B047F5
:100B0000C3EB0313C2F20006C2F20007D6F800805E
:100B100036683E604FF41676724302EB83020EEBAA
:100B20008E0302EB430248F6A043624404FB032217
:100B30004FF4616305FB03224FF47A7302FB0382D7
:100B400043F21063C2F200031B68D21A42F6B443A8
:100B5000C2F200031A60C3E742F61061C2F200015C
:100B6000884218BF704710B540F2A05442F610609A
:100B70000122C2F20004C2F20000214607F032FB5B
:100B80002078BDE8104027E710B582B042F65C64DB
:100B9000C2F20004204607F0DBFF0020019020682D
:100BA00001680191406801900198204607F0C0FC5F
:100BB000204609F05DFD40F2D8412046C822C2F22D
:100BC000000102B0BDE8104007F0D4BB4FF4006054
:100BD00004F04CBF012004F049BF000080B582B092
:100BE00041F21800C4F20200016841F00101016005
:100BF000016801F0010101910199416841F08051C2
:100C00004160406800F0805000900098052005F099
:100C100013FB04200222C4F20100016862F31A618E
:100C2000016002B080BD0000B0B5044644B3206C42
:100C300020B90020E0632046FFF72CFC242020642C
:100C40002068016821F001010160016841F4004160
:100C50000160016821F40041016004F0A3FC48F246
:100C6000A161656840F60013C0F20101C0F23D03C6
:100C70008D423CBF48F28043C0F21E03984201D22D
:100C80000120B0BD4DF68361C4F21B31A0FB0113FE
:100C900021684A6822F03F0242EA93429B0C4A6074
:100CA0000A6A22F03F0C48F2A062C0F201029542AB
:100CB00013D85A1C01384CF6FF7342EA0C020A6240
:100CC0006A00B0FBF2F001306FF31F30042898BFC8
:100CD0000420CA6922EA030C3FE04FF49672A0F1A7
:100CE000010E5A4344F6D353C1F26203A2FB03231D
:100CF000012202EB93124CF6FF7342EA0C020A62E5
:100D0000CA6922EA030CA3689BB119200422684334
:100D1000BEFBF0F0013062F31F30000512D09BB132
:100D2000192004226843BEFBF0F0013062F31F304B
:100D300011E005EB4500BEFBF0F001306FF31F3012
:100D40000005ECD1012008E005EB4500BEFBF0F00A
:100D500001306FF31F3040F4004040EA0C00C861DE
:100D60000868D4E9072320F0C000104348F2FF329E
:100D70001843086088689043D4E90323184310435C
:100D80008860C868D4E9052320F0FF0010431843A9
:100D9000C860086840F00100086000202021A064BD
:100DA000216420636064B0BD704700BF10B5044685
:100DB000002C04BF012010BD24202064206801689D
:100DC00021F0010101602046FFF798FB0020A0649C
:100DD00020642063E063606410BD00BF704700BF03
:100DE0002DE9F04782B01E4617468846044603F0B8
:100DF0006FFF0546206C202816D100BF206881694E
:100E000011F0020F12D003F063FF401B1A28F5D334
:100E1000002020210226206321646064E063A06C2E
:100E200040F02000A06405E0022603E0E16B012908
:100E300004D10226304602B0BDE8F087012100222D
:100E4000E163CFF6FF72016811F0010F02BF016884
:100E500041F001010160016821F40061016021217C
:100E60002164102161640021A1646685618DE262C4
:100E700067622185E16A11F5803F18BF012940F0C2
:100E8000ED80016841F48071016041690A9F11F0B1
:100E9000010F10D17E1C00BF4EB103F019FF002FCF
:100EA00000F0E480401BB84200F2E0802068416915
:100EB00011F0010FF0D02169B1F5804F02D108F097
:100EC000FE0126E0062101EAD81141F0F00101619E
:100ED000014651F8142F12F0080F18D17E1C00BFE4
:100EE0000A6812F4806F40F00181002E09D003F0EF
:100EF000EFFE002F00F03281401BB84200F22E813D
:100F00002068014651F8142F12F0080FE8D05FFA5C
:100F100088F10161014651F8142F12F0020F18D127
:100F20007E1C00BF0A6812F4806F40F0B380002E70
:100F300009D003F0CDFE002F00F0EB80401BB8423B
:100F400000F2E7802068014651F8142F12F0020FDA
:100F5000E8D0002601960968019181690191019903
:100F6000B4F828C0BCF1000F6FD007F101084FF6AC
:100F7000FF79014651F8142F12F0800F1BD100BFEA
:100F80000A6812F4806F40F09880B8F1000F0AD020
:100F900003F09EFE2021002F00F09380401BB842FA
:100FA00000F28F802068014651F8142F12F0800F54
:100FB000E6D0B4F828C0D4F824A0534613F8012B87
:100FC00002616362ACF10103238513EA090F628DAC
:100FD000A2F101026285D1F800E018BF1EF0040200
:100FE0000BD09AF80120ACF1020302610AF102026F
:100FF00062622385628D013A62850A6812F0040FED
:101000001FD100BF0A6812F4806F40F08E80B8F1E3
:10101000000F0AD003F05CFE2021002F00F0898031
:10102000401BB84200F285802068014651F8142F19
:1010300012F0040FE6D0B4F828C05FEA0C4198D152
:1010400003E09C465FEA0C4193D1016841F40071D2
:10105000016020202064E6636664EBE608293FF423
:1010600010AF216B12293FF40CAF0EE700202021B6
:101070000126206321646064E063A06C40F02000DE
:10108000A0642068006810F4807F1CBF4FF40070DB
:10109000A064CFE60268012642F4007202606FF499
:1010A0008060086000202021206321646064E06388
:1010B000A06C40F00400A064BCE66FF4806008609F
:1010C000042100202022206322646064A26C11436A
:1010D000A164E063A06C042806D1206801260168A1
:1010E00041F400710160A5E60126A3E6026801262D
:1010F00042F4007202606FF48060086000202021DA
:10110000206321646064E063A06C40F00400A0648C
:1011100090E6002020210126206321646064E063C2
:10112000A06C40F02000A06484E66FF4806008604A
:10113000042100202022206322646064A26C1143F9
:10114000A164E063A06C042806D120680126016830
:1011500041F4007101606DE601266BE6002020215C
:101160000126206321646064E063A06C40F02000ED
:10117000A0645FE62DE9F04F83B0044600201E46D0
:1011800017468846019003F0A3FD0546206C2028F1
:1011900018D100BF2068816911F0020F0FD003F051
:1011A00097FD401B1A28F5D30020202120632164DD
:1011B0006064E063A06C40F02000A06402E0E16B9A
:1011C000012903D1022003B0BDE8F08F01210022E4
:1011D000E163CFF6FF72016811F0010F02BF0168F1
:1011E00041F001010160016821F4006101602221E8
:1011F0002164102161640021A1646685618DE26231
:1012000067622185E16A026842F4806211F5803FDD
:10121000026018BF012940F0B480016841F4807178
:10122000016041690C9E11F0010F10D1771C00BFC5
:101230004FB103F04DFD002E00F0BC80401BB042CA
:1012400000F2B8802068416911F0010FF0D02169E7
:10125000B1F5804F04D108F0FE0141F0010163E0D7
:10126000062101EAD81949F0F0010161014651F85F
:10127000142F12F0080F18D1771C00BF0A6812F45F
:10128000806F40F08680002F09D003F021FD002EF2
:1012900000F0A380401BB04200F29F80206801460E
:1012A00051F8142F12F0080FE8D05FFA88F20261AB
:1012B0000A6812F0020F17D1771C00BF0A6812F4F7
:1012C000806F66D1002F09D003F002FD002E00F0E0
:1012D0008480401BB04200F280802068014651F8B3
:1012E000142F12F0020FE9D0002202920A68029233
:1012F00082690292029A026842F48072026009686E
:1013000011F0010F0ED1771C002F07D003F0E0FC85
:10131000002E4FD0401BB0424CD82068416911F0DC
:10132000010FF1D049F0F1010161014651F8142F8C
:1013300012F0020F14D1771C0A6812F4806F28D1C2
:10134000002F07D003F0C4FC002E46D0401BB04253
:1013500043D82068014651F8142F12F0020FEBD049
:10136000218D012943D0002956D1002102914169E4
:101370000291816902910299016841F40071016052
:101380006BE008293FF449AF216B11293FF445AFC9
:1013900047E7026842F4007202606FF48060086000
:1013A00000202021206321646064E063A06C40F091
:1013B00004004CE100202021206321646064E0638C
:1013C000A06C40F02000A0642068006810F4807FCA
:1013D00000F03E814FF4007039E1002020212063AD
:1013E00021646064E063A06C40F020002FE101689C
:1013F00021F480610160EFF3108072B6002002904A
:10140000206841690291816902910299016841F461
:101410000071016062B620E00268022913D142F433
:1014200000610160EFF3108072B600200290206826
:1014300041690291816902910299016821F48061F8
:10144000016062B609E042F480610160002102910E
:1014500041690291806902900298208D002800F075
:10146000DA804BF2895B771C4FF000084FF02309BC
:10147000C1F2F84B1FFA80FABAF1030F18D8BAF18B
:10148000010F2BD1206850F8141F11F0400F40F0CD
:10149000B280016811F0100F40F0C58003F018FC15
:1014A000002E00F0CA80401BB042EBD9C5E000BF5F
:1014B0002168084650F8142F12F0400F2CD1016813
:1014C00011F0100F40F0AF8003F002FC002E00F08E
:1014D000B480401BB042EBD9AFE000BF2068416947
:1014E00011F0040F2CD1002FF9D003F0F1FB16B14D
:1014F000401BB042F2D92020C4F830802064C4F8E8
:101500004480C4F83C80A06C40F02000A06401201E
:10151000BAF1020F18D030E00869616A0870606A99
:10152000216801306062208D01382085628D013A8A
:101530006285496911F0040F5DD101049AD16AE016
:101540000020BAF1020F18D1002840F08180EFF39B
:10155000108072B62068016841F400710160006972
:10156000616A0870606A01306062608D0138608570
:10157000208D0138208562B63DE0002868D12068C2
:10158000016821F480610160EFF3108072B6206879
:101590000069616A0870606A01306062618D0139BA
:1015A0006185218D0139218540F23401C2F20001AB
:1015B0000968C908A1FB0B12110A01FB09F101918D
:1015C0000199013901910199002945D021684A69A1
:1015D00012F0040FF4D00A6842F400720A6009693C
:1015E0000170606A01306062208D01382085608D55
:1015F0000138608562B620680069616A0870606AB7
:1016000001306062208D01382085618D013961854E
:1016100001047FF42FAF202020640020E063606489
:1016200003B0BDE8F08F6FF01001016000202021B1
:10163000206321646064A06C07E000202021206307
:1016400021646064A06C40F020000021E163A0648C
:10165000012003B0BDE8F08F002020212063216429
:101660006064A16C41F02001A16462B6E063EFE721
:101670002DE9F04383B01D4616460F46044603F09D
:1016800027FB8046206C20280BD1002F4FF0010053
:1016900018BF002E02D103B0BDE8F083E06B012833
:1016A00003D1022003B0BDE8F08301204FF0000910
:1016B0000022E063CFF6FF722168086810F0010F86
:1016C00002BF086840F001000860086820F400606C
:1016D00008602120206420206064C4F8489066855A
:1016E0006762608DE2622085086840F4806008606F
:1016F000084650F8142F12F0020F14D16E1C00BFD0
:10170000002E0AD003F0E4FA002D00F0A380A0EB35
:101710000800A84200F29E802168084650F8142F65
:1017200012F0020FECD0CDF80890026802928A699C
:101730000292029A2269B2F5404F1DD1026812F05E
:10174000020F12D16E1C00BF4EB103F0C1FA002D82
:1017500000F08080A0EB0800A8427BD821680846F2
:1017600050F8142F12F0020FEED000220192006800
:101770000190886901900198208D002844D06E1C4A
:101780004FF6FF790A4652F8143F13F0800F17D135
:10179000106810F4806F68D14EB103F099FA216897
:1017A0002022002D65D0A0EB0800A84261D80A468F
:1017B00052F8140F10F0800FEAD0B4F828C000E0FF
:1017C0008446676A384610F8013B0B616062ACF1F1
:1017D0000100208510EA090F638DA3F101036385E1
:1017E000126818BF12F0040202D10204CAD10BE041
:1017F00078780861B81C6062ACF102002085628DC7
:10180000013A62850204BDD1084650F8142F12F443
:10181000806F10D16E1C00BF3EB103F059FACDB1FC
:10182000A0EB0800A84215D82168084650F8142FEC
:1018300012F4806FF0D06FF480620260086820F4C8
:1018400080600860202020640020E063606403B0B2
:10185000BDE8F08300202021206321646064E06300
:10186000A06C40F02000A06410E06FF48060106075
:10187000042200202023206323646064E063A06CC2
:101880001043A064086820F480600860012003B061
:10189000BDE8F0832DE9F04383B01D4616460F46A0
:1018A000044603F015FA8046206C20280BD1002F47
:1018B0004FF0010018BF002E02D103B0BDE8F08345
:1018C000E06B012803D1022003B0BDE8F0830120C2
:1018D0004FF00009E0632168086810F0010F02BFB3
:1018E000086840F001000860086820F400600860A3
:1018F0002220206420206064C4F8489066856762D6
:101900000020628DCFF6FF70E0622285086840F407
:1019100080600860084650F8143F13F0020F15D19C
:101920006E1C00BF002E0AD003F0D2F9002D00F08B
:101930009880A0EB0800A84200F293802168084636
:1019400050F8142F12F0020FECD0228DCDF8089031
:10195000002A036802938B690293029B03683BD0C1
:101960004FF6FF765A0612D4026812F0100F5DD1BE
:1019700003F0AEF9002D63D0A0EB0800A8425FD8B9
:101980002168084650F8142F12F0400FECD0086977
:10199000616A0870606A216801306062228D013AD4
:1019A00022853242638DA3F1010363854B6918BF21
:1019B00013F004030BD009690170606A21680130DB
:1019C0006062208D421E2285608D01386085084648
:1019D000120450F8143FC5D1DA0613D4026812F489
:1019E000806F4CD103F074F921682022002D4AD079
:1019F000A0EB0800A84246D8084650F8142F12F071
:101A0000100FEBD0002001904A6901920A6842F061
:101A100001020A60019A0A6822F480620A602021A9
:101A20002164E063606403B0BDE8F0836FF01002EE
:101A3000026000202022206322646064A06C08E021
:101A4000002020212063216460642168A06C40F0A4
:101A500020000022E263A064086820F4806008602F
:101A600009E000202021206321646064E063A06C11
:101A700040F02000A064012003B0BDE8F0836FF4C3
:101A800080620260042200202023206323646064BB
:101A9000E063A06C1043A064086820F480600860D4
:101AA000012003B0BDE8F08310B581B04FF0000C09
:101AB000CDF800C0D0F840C0BCF1200F30D140F2CA
:101AC000340C4BF2895EC2F2000CC1F2F84EDCF825
:101AD00000C04FEADC0CACFB0ECE4FEA1E2C4FF0E0
:101AE000190E0CFB0EFCCDF800C000BFDDF800C0E5
:101AF000ACF1010CCDF800C0DDF800C0BCF1000F66
:101B000011D0D0F800E0DEF818C01CF0020FEDD1C3
:101B1000D0F83CC0BCF1010F12D14FF0020C47E0ED
:101B20004FF0020C44E0002120224FF0010C016331
:101B300002644164C163816C41F02001816437E03B
:101B40004FF0010C0024C0F83CC0CFF6FF74DEF863
:101B500000C01CF0010F02BFDEF800C04CF0010C09
:101B6000CEF800C0DEF800C02CF4006CCEF800C047
:101B70004FF0210CC0F840C04FF0100CC0F844C02A
:101B80004FF0000CC0F848C04385438DC4624262E8
:101B9000C0F83CC00385C164DEF8040040F4E06096
:101BA000CEF80400DEF8000040F48070CEF80000AB
:101BB000604601B010BD00BF10B581B04FF0000C01
:101BC000CDF800C0D0F840C0BCF1200F30D140F2B9
:101BD000340C4BF2895EC2F2000CC1F2F84EDCF814
:101BE00000C04FEADC0CACFB0ECE4FEA1E2C4FF0CF
:101BF000190E0CFB0EFCCDF800C000BFDDF800C0D4
:101C0000ACF1010CCDF800C0DDF800C0BCF1000F54
:101C100011D0D0F800E0DEF818C01CF0020FEDD1B2
:101C2000D0F83CC0BCF1010F12D14FF0020C4DE0D6
:101C30004FF0020C4AE0002120224FF0010C01631A
:101C400002644164C163816C41F0200181643DE024
:101C50004FF0010C0024C0F83CC0CFF6FF74DEF852
:101C600000C01CF0010F02BFDEF800C04CF0010CF8
:101C7000CEF800C0DEF800C02CF4006CCEF800C036
:101C80004FF0220CC0F840C04FF0100CC0F844C018
:101C90004FF0000CC0F848C04385438DC4624262D7
:101CA000C0F83CC00385C164DEF8040040F4E06085
:101CB000CEF80400DEF8000040F48060CEF80000AA
:101CC000DEF8000040F48070CEF80000604601B0FD
:101CD00010BD00BF036C202B0AD100294FF0010377
:101CE00018BF002A01D118467047C36B012B02D1DF
:101CF0000223184670470123C363D0F800C0DCF804
:101D0000003013F0010F02BFDCF8003043F0010394
:101D1000CCF80030DCF8003023F40063CCF800305D
:101D200021230364202343640023836442854162AA
:101D30000022418DCFF6FF72C2620185DCF80010EF
:101D400041F48061CCF80010C363DCF8040040F477
:101D5000E060CCF804001846704700BF036C202BED
:101D60000AD100294FF0010318BF002A01D11846FB
:101D70007047C36B012B02D1022318467047012321
:101D8000C363D0F800C0DCF8003013F0010F02BFCD
:101D9000DCF8003043F00103CCF80030DCF8003010
:101DA00023F40063CCF8003022230364202343642F
:101DB00000238364428541620022418DCFF6FF7289
:101DC000C2620185DCF8001041F48061CCF800109B
:101DD000C363DCF8040040F4E060CCF8040018466B
:101DE000704700BF70B582B0054600200190286C96
:101DF00020281CD140F234004BF28956C2F2000078
:101E0000C1F2F8460068C008A0FB0606300A192691
:101E100070430190019801380190019850B12C68ED
:101E2000A06910F0020FF5D1E86B01280FD1022054
:101E300002B070BD00202021286329646864E86333
:101E4000A86C40F02000A864012002B070BD012001
:101E50000026E863CFF6FF76206810F0010F02BF7E
:101E6000206840F001002060206820F400602060BD
:101E700021202864102068640020A8646B856B8D85
:101E8000EE626A62002B2B85E9641ED0686B48B352
:101E900042F2390C41F62571002600F12C0EC0F6F5
:101EA000000CC0F600018EE8421004F1100C11463F
:101EB0008663624603F08EFEE8B1202028646E64DB
:101EC000EE63A86C40F01000BDE7216841F480612A
:101ED0002160216841F4807144F8041BE8634FF4E9
:101EE000E06018E02020286400206864E863A86CA3
:101EF00040F08000A7E7EE632C68606840F4407013
:101F00006060606840F400606060206840F4806059
:101F100020604FF48070216808432060002002B0E8
:101F200070BD00BF10B5846A226CD4F844E0D4F8C8
:101F30002CC02068416821F440714160616B002928
:101F40001CBF0023CB62A16B00291CBF0023CB6206
:101F500002F0210121291FD002F02201222908BF0D
:101F6000BEF1200F18D0616C002908BF10BD618D33
:101F7000012902BF016821F480610160BCF1070FF3
:101F8000416821F44071416026DCBCF12A4F29D020
:101F90001CF5803F26D029E041682A2A21F40061FF
:101FA00041604FF00000608509D0292A0ED1212020
:101FB000206328202064204602F018FE06E022203C
:101FC000206328202064204602F012FE2068416829
:101FD00041F44071416010BDBCF1200F02D0BCF152
:101FE000080F03D1016841F400710160416821F4D8
:101FF00080514160416821F40061416000206085AA
:10200000A16C21B12046BDE8104002F0FBBD2021AB
:102010002164616C6064402906D100202063204661
:10202000BDE8104002F0ECBD122020632046BDE860
:10203000104002F0D9BD00BF806A416B00291CBF6F
:102040000022CA62816B00291CBF0022CA6201689B
:102050000A6822F480620A6000212022418502641D
:102060004164816C41F01001816402F0CBBD00BF7E
:1020700070B582B0054600200190286C20281CD144
:1020800040F234004BF28956C2F20000C1F2F84629
:102090000068C008A0FB0606300A192670430190AC
:1020A000019801380190019850B12C68A06910F096
:1020B000020FF5D1E86B01280FD1022002B070BDEC
:1020C00000202021286329646864E863A86C40F03C
:1020D0002000A864012002B070BD01200026E86342
:1020E000CFF6FF76206810F0010F02BF206840F0A5
:1020F00001002060206820F4006020602220286415
:10210000102068640020A8646B856B8DEE626A62A3
:10211000002B2B85E9641CD0A86B20B342F2390C4C
:1021200041F62571002600F12C0EC0F6000CC0F619
:1021300000018EE8421004F11001866303F04AFDAD
:10214000D0B1202028646E64EE63A86C40F01000CB
:10215000BFE7E8634FF48061606840F4E06060606E
:102160004FF4807017E02020286400206864E86342
:10217000A86C40F08000ACE72C684FF440712068F8
:1021800040F480602060206840F4807044F8040BC4
:10219000EE634FF400602268114321602168084318
:1021A0002060002002B070BDB0B50446206C20282D
:1021B00009D100294FF0010018BF002A00D1B0BD9D
:1021C000E06B012801D10220B0BD01204FF0000ECC
:1021D000E063D4F800C0DCF8000010F0010F02BF8B
:1021E000DCF8000040F00100CCF80000DCF8000052
:1021F00020F40060CCF800002120206420206064DE
:10220000C4F848E0628561620020638DCFF6FF70FC
:10221000E0622385606BD8B142F2390241F6257540
:10222000C0F60005C0F60002C0E90B5EC0E90D2E45
:102230000CF1100203F0CEFCB0B12020206400208D
:102240006064E063A06C40F01000A0640120B0BDA9
:1022500028202064C4F844E0C4F83CE0A06C40F0BE
:102260008000A0640120B0BD2168086840F480604F
:1022700008600020E0634A6842F440724A604A689D
:1022800042F400624A60B0BDB0B504468C46206C92
:1022900020280AD1BCF1000F4FF0010018BF002A1E
:1022A00000D1B0BDE06B012801D10220B0BD0120FA
:1022B0004FF0000EE0632168086810F0010F02BFC4
:1022C000086840F001000860086820F400600860B9
:1022D0002220206420206064C4F848E06285C4F8AD
:1022E00024C00020638DCFF6FF70E0622385A06BD1
:1022F000D8B142F2390241F625751031C0F6000519
:10230000C0F60002C0E90B5EC0E90D2E624603F084
:1023100061FCB0B12020206400206064E063A06C08
:1023200040F01000A0640120B0BD28202064C4F853
:1023300044E0C4F83CE0A06C40F08000A0640120C0
:10234000B0BD2168086840F4806008600020E06348
:102350004A6842F440724A604A6842F400624A6045
:10236000B0BD00BF2DE9F04383B0984617460E4636
:10237000044602F0ADFC0546206C202818D100BFB1
:102380002068816911F0020F0FD002F0A1FC401B00
:102390001A28F5D300202021206321646064E063C3
:1023A000A06C40F02000A06402E0E16B012903D1A1
:1023B000022003B0BDE8F0830DF12809012399E85C
:1023C0000602E363036813F0010F02BF036843F0E2
:1023D00001030360036823F4006303602120434684
:1023E0002064402060640020A06462856162002156
:1023F0003A46608DCFF6FF71E16231462085204676
:10240000CDE9009500F08AF818B1012003B0BDE8CD
:10241000F0832068228D0146002A51F8143F41D0F4
:1024200009F101064FF6FF781B0617D40A6812F46B
:10243000806F5CD14EB102F04BFC2021B9F1000F4E
:1024400059D0401B484556D82068014651F8142FF2
:1024500012F0800FEAD0B4F828C000E09446676A12
:10246000394611F8012B0261ACF10102228561624B
:1024700012EA080F618DA1F101016185014651F851
:10248000143F18BF13F0040309D07A78BB1C026113
:10249000ACF1020222856362638D013B63850B68A8
:1024A0001704C1D15A0716D409F101060A6812F4BB
:1024B000806F1CD14EB102F00BFC2021B9F1000F4E
:1024C00019D0401B484516D82068014651F8142FF2
:1024D00012F0040FEAD0016841F40071016020207D
:1024E00020640020E063606403B0BDE8F0836FF413
:1024F0008060086004210020202220632264606440
:10250000A26C1143A164E063A06C04287FF47DAF4A
:102510002068016841F40071016076E72DE9F04719
:1025200082B004468A46904699462068016841F484
:1025300080710160014651F8142FDDE90A6512F03F
:10254000010F10D1771C00BF3FB102F0C1FB002E7C
:1025500071D0401BB0426ED82068014651F8142F4C
:1025600012F0010FF0D00AF0FE0202610A6812F0C8
:10257000020F17D1771C00BF0A6812F4806F70D168
:10258000002F09D002F0A4FB002E00F09180401B28
:10259000B04200F28D802068014651F8142F12F0ED
:1025A000020FE9D0002201920A6801928269019229
:1025B000019A0A6812F0800F15D1771C0A6812F48C
:1025C000806F5FD1002F08D002F082FB2021002E07
:1025D0005CD0401BB04259D82068014651F8142FF6
:1025E00012F0800FEAD0B9F1010F1DD04FEA182187
:1025F0000161014651F8142F12F0800F14D1771C9D
:102600000A6812F4806F3DD1002F07D002F060FB02
:102610002021DEB3401BB04238D82068014651F873
:10262000142F12F0800FEBD05FFA88F101610020C7
:1026300002B0BDE8F087002020212063216460649F
:10264000E063A06C40F02000A0642068006810F4F3
:10265000807F1CBF4FF40070A064032002B0BDE86F
:10266000F087026842F4007202606FF480600860D4
:1026700000202021206321646064E063A06C40F0AE
:1026800004001EE06FF48060086004210020202216
:10269000206322646064A26C1143A164E063A06CB7
:1026A00004280FD12068016841F40071016009E03D
:1026B00000202021206321646064E063A06C40F06E
:1026C0002000A064012002B0BDE8F0872DE9F04FA2
:1026D00085B004460020984617460E46049002F046
:1026E000F7FA0546206C202818D100BF20688169C0
:1026F00011F0020F0FD002F0EBFA401B1A28F5D3AD
:1027000000202021206321646064E063A06C40F01D
:102710002000A06402E0E16B012903D1022005B092
:10272000BDE8F08F0DF13809012399E80602E36353
:10273000036813F0010F02BF036843F00103036055
:10274000036823F400630360222043462064402092
:1027500060640020A0646285616200213A46608D59
:10276000CFF6FF71E162314620852046CDE9009524
:1027700000F058F9002840F04581218D01290DD045
:1027800011BB002003902068416903918169039186
:102790000399016841F40071016037E02068016825
:1027A00021F480610160EFF3108072B60020039085
:1027B000206841690391816903910399016841F49B
:1027C0000071016062B621E020680229026813D11D
:1027D00042F400610160EFF3108072B600200390B4
:1027E000206841690391816903910399016821F48B
:1027F0008061016062B609E042F4806101600021FD
:10280000039141690391806903900398208D00280A
:1028100000F0DB804BF2895B09F1010600274FF0E5
:102820002308C1F2F84B1FFA80FABAF1030F19D846
:10283000BAF1010F2CD1206850F8141F11F0400F8D
:1028400040F0B380016811F0100F40F0C68002F034
:102850003FFAB9F1000F00F0CA80401B4845EAD9A1
:10286000C5E000BF2168084650F8142F12F0400F51
:102870002BD1016811F0100F40F0AF8002F028FA60
:10288000B9F1000F00F0B380401B4845EAD9AEE033
:102890002068416911F0040F2BD1002EF9D002F00D
:1028A00017FAB9F1000F02D0401B4845F0D920209B
:1028B000276320646764E763A06C40F02000A06495
:1028C0000120BAF1020F18D030E00869616A08707F
:1028D000606A216801306062208D01382085628D38
:1028E000013A6285496911F0040F5ED101049AD161
:1028F0006BE00020BAF1020F18D1002840F082806E
:10290000EFF3108072B62068016841F40071016035
:102910000069616A0870606A01306062608D013828
:102920006085208D0138208562B63EE0002869D19F
:102930002068016821F480610160EFF3108072B6B5
:1029400020680069616A0870606A01306062618DA8
:1029500001396185218D0139218540F23401C2F2AE
:1029600000010968C908A1FB0B12110A01FB08F15B
:10297000049100BF0499013904910499002945D0BC
:1029800021684A6912F0040FF4D00A6842F4007218
:102990000A6009690170606A01306062208D013847
:1029A0002085608D0138608562B620680069616AA3
:1029B0000870606A01306062208D01382085618D69
:1029C0000139618501047FF42EAF202020640020AE
:1029D000E063606405B0BDE8F08F6FF01001016046
:1029E00000202021206321646064A06C07E00020A7
:1029F0002021206321646064A06C40F0200000214D
:102A0000E163A064012005B0BDE8F08F0020202123
:102A1000206321646064A16C41F02001A16462B66E
:102A2000E063EFE72DE9F04F81B004460F46904692
:102A300099462068016841F480610160016841F4B1
:102A400080710160014651F8142FDDE90A6B12F024
:102A5000010F13D1751C00BF55B102F039F9002EDA
:102A600000F0D380A0EB0B00B04200F2CE802068D3
:102A7000014651F8142F12F0010FEDD007F0FE0AB5
:102A8000C0F810A00A6812F0020F19D1771C00BF1D
:102A90000A6812F4806F40F0E480002F0AD002F040
:102AA00017F9002E00F0EE80A0EB0B00B04200F210
:102AB000E9802068014651F8142F12F0020FE7D088
:102AC000002200920A68009282690092009A0A68C5
:102AD00012F0800F19D1771C0A6812F4806F40F051
:102AE000AA80002F0BD002F0F3F82021002E00F076
:102AF000A680A0EB0B00B04200F2A1802068014646
:102B000051F8142F12F0800FE6D0B9F1010F21D047
:102B10004FEA18210161014651F8142F12F0800F7D
:102B200018D1771C0A6812F4806F40F08480002F5F
:102B30000AD002F0CDF82021002E00F08080A0EB1A
:102B40000B00B0427BD82068014651F8142F12F0D8
:102B5000800FE7D05FFA88F10161014651F8142F28
:102B600012F0800F16D1771C0A6812F4806F62D1C0
:102B7000002F09D002F0ACF82021002E5FD0A0EB8E
:102B80000B00B0425BD82068014651F8142F12F0B8
:102B9000800FE9D0026842F4807202600A6812F085
:102BA000010F11D1751C00BF002D07D002F090F865
:102BB0005EB3A0EB0B00B04227D82068014651F865
:102BC000142F12F0010FEFD04AF0010202610A68DF
:102BD00012F0020F15D1771C0A6812F4806F40D1F1
:102BE000002F08D002F074F8002E4BD0A0EB0B00A1
:102BF000B04247D82068014651F8142F12F0020F56
:102C0000EAD0002001B0BDE8F08F00202021206331
:102C100021646064E063A06C40F02000A064206840
:102C2000006810F4807F1CBF4FF40070A064032084
:102C300001B0BDE8F08F6FF48060086004210020CF
:102C40002022206322646064A26C1143A164E063CB
:102C5000A06C042820D12068016841F40071016053
:102C60001AE0026842F4007202606FF4806008604B
:102C700000202021206321646064E063A06C40F0A8
:102C8000040008E000202021206321646064E063E8
:102C9000A06C40F02000A064012001B0BDE8F08FDE
:102CA00070B581B000250095056C202D22D140F231
:102CB0003405DDE905E64BF28954C2F20005C1F2A4
:102CC000F8442D68ED08A5FB0454250A1924654332
:102CD000009500BF009D013D0095009D6DB1056808
:102CE000AC6914F0020FF5D1C46B012C12D14FF076
:102CF000020C3DE04FF0020C3AE0002120224FF0A0
:102D0000010C016302644164C163816C41F02001E4
:102D100081642DE001244FF0000CC4632C6814F092
:102D2000010F02BF2C6844F001042C602C6824F4CD
:102D300000642C602124046440244464C0F848C02A
:102D400046850026448DCFF6FF76C662C1640265D3
:102D50004365C0F824E00485C0F858C0296841F4F0
:102D600080712960C0F83CC0686840F4E060686029
:102D7000604601B070BD00BF70B581B00025009500
:102D8000056C202D22D140F23405DDE905E64BF239
:102D90008954C2F20005C1F2F8442D68ED08A5FB84
:102DA0000454250A19246543009500BF009D013D88
:102DB0000095009D6DB10568AC6914F0020FF5D166
:102DC000C46B012C12D14FF0020C45E04FF0020C05
:102DD00042E0002120224FF0010C016302644164B3
:102DE000C163816C41F02001816435E001244FF022
:102DF000000CC4632C6814F0010F02BF2C6844F06F
:102E000001042C602C6824F400642C6022240464E7
:102E100040244464C0F848C046850026448DCFF65F
:102E2000FF76C662C16402654365C0F824E004858C
:102E3000C0F858C0002C296841F4806129602968D5
:102E400041F480712960C0F83CC005D068684FF03B
:102E5000000C40F4E0606860604601B070BD00BFE7
:102E60002DE9F04385B004460020984616460F46EB
:102E7000049001F02DFF0546206C20281FD140F260
:102E80003400DDE90C134BF28952C2F20000C1F2AA
:102E9000F8420068C008A0FB0202100A1922504341
:102EA000049000BF049801380490049858B1226837
:102EB000906910F0020FF5D1E06B012811D10220CA
:102EC00005B0BDE8F0830020202120632164606408
:102ED000E063A06C40F02000A064012005B0BDE8D4
:102EE000F08301204FF0000CE063106810F0010F38
:102EF00002BF106840F001001060106820F400600C
:102F000010602120206440206064C4F848C06385BC
:102F100061620020638DCFF6FF70E062002B238595
:102F20001DD0606B28B342F2390C41F6257E103279
:102F30004FF00009C0F6000EC0F6000CC0E90BE926
:102F4000C0E90DC902F046FEE0B120202064C4F8BB
:102F50004490C4F83C90A06C40F01000BCE72020E6
:102F60002064C4F844C0C4F83CC0A06C40F04000E9
:102F7000B2E72020206400206064E063A06C40F091
:102F80008000A9E72320394632464346CDE90005B3
:102F90002046FFF7C3FA88B1606B02F085FE606BD4
:102FA0000021C1622068026822F4806202606185AB
:102FB0002185016821F0010101608EE70020039066
:102FC00021684A6903928A690392039AE0634A6816
:102FD00042F480724A604A6842F400624A6005B076
:102FE000BDE8F0832DE9F04385B0984616460F46BC
:102FF000044601F06DFE054600200490206C202858
:103000001FD140F23401DDE90C204BF28953C2F2AA
:103010000001C1F2F8430968C908A1FB0313190AAA
:1030200019235943049100BF04990139049104996B
:1030300059B121688B6913F0020FF5D1E36B012BB5
:1030400011D1022005B0BDE8F083002020212063CB
:1030500021646064E063A06C40F02000A064012063
:1030600005B0BDE8F0830123E3630B6813F0010FA3
:1030700002BF0B6843F001030B600B6823F400638D
:103080000B6022232364402363640023A3646085D0
:1030900062620020638DCFF6FF70E062002B238513
:1030A0001DD0A06BC0B342F2390C41F6257E103121
:1030B0004FF00009C0F6000EC0F6000CC0E90BE9A5
:1030C000C0E90DC902F086FD78B320202064C4F861
:1030D0004490C4F83C90A06C40F01000BEE7232060
:1030E000394632464346CDE900052046FFF79AFCB3
:1030F0000028B4D10020029021684A6902928A69AE
:103100000292029A0A6842F400720A602021E06387
:10311000216405B0BDE8F0832020206400206064B5
:10312000E063A06C40F0800098E7232039463246E7
:103130004346CDE900052046FFF774FC88B1A06B3B
:1031400002F0B2FDA06B0021C1622068026822F487
:103150008062026061852185016821F001010160C2
:103160007DE7208D2168012804D1086820F4806063
:10317000086003E0486840F48050486000200390F5
:103180004A6903928A690392039AE0634A6842F4A7
:1031900080724A604A6842F400624A6005B0BDE845
:1031A000F08300BF2DE9F04F83B01E4690460F46D6
:1031B000044601F08DFD0546206C202816D100BF85
:1031C0002068816911F0020F12D001F081FD401BCF
:1031D0001A28F5D300202021022620632164606490
:1031E000E063A06C40F02000A064ACE00226AAE0FE
:1031F000E16B012901D10226A5E001214FF0010A6E
:1032000006F101094FF0A00BE163016811F0010F15
:1032100002BF016841F001010160016821F4006111
:103220000160242121640021A1640021CFF6FF71F7
:10323000E16207F0FE010191016841F480710160D3
:1032400001E000BF2068416911F0010F0AD1B9F116
:10325000000FF8D001F03CFD002E61D0401BB042C1
:10326000F0D95DE00199016101F032FD0546206869
:10327000014651F814CF0B68226CA02A20D09A0A7C
:1032800042EA5C0212F0010206D019E09B0A43EA0E
:10329000520212F0010213D101F01AFD36B1401BA7
:1032A000B04288BFC4F840B002E000BFC4F840B0EC
:1032B0002068014651F8142F0B68276CA02FE5D128
:1032C000202222640A68036843F4007312F0020F9C
:1032D00003603CD16FF480620A6000E0206881697D
:1032E00011F0020F06D001F0F3FC401B1A28F5D3B1
:1032F0000AE000BF0AF1010AC2459DD30020012661
:10330000E063202020641EE00020202101262063AD
:1033100021646064E063A06C40F02000A06412E0CF
:10332000002020210326206321646064E063A06CF8
:1033300040F02000A0642068006810F4807F1CBF6B
:103340004FF40070A064304603B0BDE8F08F002653
:1033500002960968029181690291029900E0206851
:10336000806910F0020F10D001F0B2FC401B1A2847
:10337000F5D3002020210126206321646064E063EE
:10338000A06C40F02000A064DDE72020E66320640C
:10339000D9E700BFB0B582B04FF0000CCDF804C043
:1033A000CDF800C0D0F840C0BCF1200F2DD1D0F82E
:1033B00000C0DDF818E0DCF8004014F4007F05D10F
:1033C000BEF1080F02D0BEF1010F19D140F2340452
:1033D0004BF28955C2F20004C1F2F8452468E408B2
:1033E000A4FB05452C0A19256C430094009C013C64
:1033F0000094009C5CB1DCF8184014F0020FF5D189
:10340000C46B012C0FD1022146E0022144E00021CF
:103410002022016302644164C163816C41F0200198
:103420008164012138E00124C463DCF8004014F019
:10343000010F02BFDCF8004044F00104CCF800406A
:10344000DCF8004024F40064CCF80040212404643B
:1034500010244464002484644385438DC0F82CE028
:10346000C16442620385016B01910199112905D163
:10347000BEF52A0F02D0BEF12A4F05D1DCF80010AC
:1034800041F48071CCF800100021C163DCF8040025
:1034900040F4E060CCF80400084602B0B0BD00BFC4
:1034A000F0B583B00546002002900190286C2028DA
:1034B00026D12C68089E206810F4007F03D1082EC6
:1034C00001D0012E19D140F234004BF28957C2F2DB
:1034D0000000C1F2F8470068C008A0FB0707380ADF
:1034E00019277843019000BF019801380190019895
:1034F00048B1A06910F0020FF6D1E86B01280FD196
:10350000022003B0F0BD00202021286329646864F4
:10351000E863A86C40F02000A864012003B0F0BD6F
:103520000120E863206810F0010F02BF206840F01E
:1035300001002060206820F40060206021202864C1
:10354000102068640020A8646B856B8DEE62E964CE
:103550006A622B85002B286B02901ED0686B90B39B
:1035600042F2390C41F62571002700F12C0EC0F60D
:10357000000CC0F600018EE8821004F1100C114618
:103580008763624602F026FB30B3202028646F6414
:10359000EF63A86C40F01000BEE7206840F4806044
:1035A00020600298112805D1B6F52A0F02D0B6F195
:1035B0002A4F03D1206840F4807020600020E86327
:1035C0004FF4E06030E02020286400206864E86365
:1035D000A86C40F080009FE72C68206840F4806071
:1035E00020600298112805D1B6F52A0F02D0B6F155
:1035F0002A4F03D1206840F4807020600020311FE2
:10360000E8634FF440701C290ED8012202FA01F140
:1036100041F20102C1F2000211421FBF606840F492
:10362000006060604FF44070616808436060002093
:1036300003B0F0BDB0B582B04FF0000CCDF804C0BF
:10364000CDF800C0D0F840C0BCF1200F2DD1D0F88B
:1036500000C0DDF818E0DCF8004014F4007F05D16C
:10366000BEF1080F02D0BEF1010F19D140F23404AF
:103670004BF28955C2F20004C1F2F8452468E4080F
:10368000A4FB05452C0A19256C430094009C013CC1
:103690000094009C5CB1DCF8184014F0020FF5D1E6
:1036A000C46B012C0FD1022166E0022164E00021ED
:1036B0002022016302644164C163816C41F02001F6
:1036C0008164012158E00124C463DCF8004014F057
:1036D000010F02BFDCF8004044F00104CCF80040C8
:1036E000DCF8004024F40064CCF800402224046498
:1036F00010244464002484644385438DC0F82CE086
:10370000C16442620385016B0191418D022915D18B
:10371000BEF1200F02D0BEF1100F0FD1019ADCF8DC
:103720000010122A0CD121F480614FF44072CCF8C1
:103730000010DCF8001041F4006105E0DCF8001036
:1037400041F480614FF4E062CCF800100199122935
:1037500005D1BEF52A0F02D0BEF12A4F05D1DCF803
:10376000001041F48071CCF800100021C163DCF836
:1037700004001043CCF80400084602B0B0BD00BFFE
:10378000F0B583B00446002002900190206C202800
:1037900026D12568089E286810F4007F03D1082EE2
:1037A00001D0012E19D140F234004BF28957C2F2F8
:1037B0000000C1F2F8470068C008A0FB0707380AFC
:1037C00019277843019000BF0198013801900198B2
:1037D00048B1A86910F0020FF6D1E06B01280FD1B3
:1037E000022003B0F0BD002020212063216460642A
:1037F000E063A06C40F02000A064012003B0F0BDA5
:103800000120E063286810F0010F02BF286840F033
:1038100001002860286820F400602860284650F8DD
:10382000047F27F4805707602227276410276764E6
:103830000027A7646385638DE662E1646262238585
:10384000002B216B02913DD0618D022910D1202ED9
:1038500001D0102E0CD1029F2968122F79D121F4AA
:1038600080612960296841F400612960696809E084
:103870002968B6F12A4F41F48061296018BF202ED3
:1038800064D1016841F480510160A06B80B342F2C1
:10389000390C41F62571002700F12C0EC0F6000C02
:1038A000C0F600018EE8821005F11001876302F076
:1038B00091F930B3202020646764E763A06C40F086
:1038C000100099E7296841F4806129600299122962
:1038D00005D1B6F52A0F02D0B6F12A4F03D12968D7
:1038E00041F4807129600021E1634FF4E06136E02A
:1038F0002020206400206064E063A06C40F0800021
:103900007AE70298122805D1B6F52A0F02D0B6F14F
:103910002A4F2AD12068016841F4807101604FF478
:1039200040710020E063301F1C2816D8012202FAE3
:1039300000F041F20102C1F2000210420DD02068F5
:1039400050F8042F42F40062026008E0102E98D074
:103950009BE741F48060286097E7206804300268A4
:1039600011430160002003B0F0BD4FF48071D8E72F
:10397000D0F840C00CF0280CBCF1280F0CD1002965
:103980004FF0010C18BF002A01D160467047D0F8F3
:103990003CC0BCF1010F03D14FF0020C60467047F0
:1039A00080B581B04FF0010CC0F83CC0D0F800E009
:1039B000DEF800C01CF0010F02BFDEF800C04CF0C2
:1039C000010CCEF800C0DEF800C02CF4006CCEF87C
:1039D00000C04FF0290CC0F840C04FF0200CC0F8D8
:1039E00044C04FF0000CC0F848C042854162418D90
:1039F000C3620185CDF800C0DEF814100091DEF836
:103A0000181000910099C0F83CC0DEF8040040F4A2
:103A1000E060CEF8040001B0BDE880406046704729
:103A2000F0B581B004461E4617460D46206C00F0E6
:103A3000280028280AD1002D4FF0010018BF002FC0
:103A400001D101B0F0BDE06B012802D1022001B02C
:103A5000F0BD0120E0632168486820F440704860B0
:103A6000206C2A2813D1486810F4006F27D0A06B6F
:103A700028B34A6822F400624A6043F67531C0F602
:103A80000001816302F010F9C8B1A06B15E0206C51
:103A9000292814D1486810F4006F10D0486820F429
:103AA00000604860606B50B143F67531C0F60001AC
:103AB000816302F0F9F810B1606B816B884721686F
:103AC0000022086810F0010F02BF086840F00100F2
:103AD0000860086820F40060086029202064202025
:103AE0006064A26467856562638DE6622385606BAE
:103AF000E8B142F2390741F62576C0F60006C0F675
:103B00000007C0E90B62C0E90D7201F110022946FD
:103B100002F060F8B0B12020206400206064E0630F
:103B2000A06C40F01000A064012001B0F0BD28207E
:103B300020646264E263A06C40F08000A064012015
:103B400001B0F0BD2168086840F480600860002082
:103B500000904A6900928A690092009AE0634A687C
:103B600042F440724A604A6842F400624A6001B01E
:103B7000F0BD00BF10B582B000214BF28952019117
:103B800040F23401C1F2F842806AC2F20001D0F87A
:103B900040C00968C908A1FB0212110A232251433F
:103BA000019100BF019941B1019901390191016869
:103BB000096811F4007FF5D103E0816C41F0200128
:103BC0008164446B4FF0000E002C1CBF0021E162A9
:103BD000816B00291CBF0022CA62002C0268136896
:103BE00023F480631360A0F82AE018BFC4F838E01B
:103BF00000291CBF00238B63116821F001011160B3
:103C0000016C602908D12021016400214164816494
:103C100000F0FAFF02B010BD0CF0280128290CD1E9
:103C2000116841F001011160116841F48061116077
:103C3000002101632821016403E0202101640021A7
:103C4000416400F0DFFF02B010BD00BFD0F840C0FB
:103C50000CF0280CBCF1280F0CD100294FF0010CFE
:103C600018BF002A01D160467047D0F83CC0BCF1B3
:103C7000010F03D14FF0020C6046704780B581B050
:103C80004FF0010CC0F83CC0D0F800E0DEF800C0F6
:103C90001CF0010F02BFDEF800C04CF0010CCEF8A2
:103CA00000C0DEF800C02CF4006CCEF800C04FF06D
:103CB0002A0CC0F840C04FF0200CC0F844C04FF0B0
:103CC000000CC0F848C042854162418DC362018545
:103CD000CDF800C0DEF814100091DEF81810009145
:103CE0000099C0F83CC0DEF8040040F4E060CEF873
:103CF000040001B0BDE8804060467047F0B581B077
:103D000004461E4617460D46206C00F02800282861
:103D10000AD1002D4FF0010018BF002F01D101B0D2
:103D2000F0BDE06B012802D1022001B0F0BD0120FE
:103D3000E0632168486820F440704860206C2A28BD
:103D400013D1486810F4006F27D0A06B28B34A68DD
:103D500022F400624A6043F67531C0F600018163C7
:103D600001F0A2FFC8B1A06B15E0206C292814D186
:103D7000486810F4006F10D0486820F40060486074
:103D8000606B50B143F67531C0F60001816301F0FC
:103D90008BFF10B1606B816B884721680022086837
:103DA00010F0010F02BF086840F0010008600868C9
:103DB00020F4006008602A20206420206064A2644F
:103DC00067856562638DE6622385A06BE0B142F290
:103DD000390741F625761031C0F60006C0F6000717
:103DE000C0E90B62C0E90D722A4601F0F3FEB0B1E2
:103DF0002020206400206064E063A06C40F010008C
:103E0000A064012001B0F0BD282020646264E26358
:103E1000A06C40F08000A064012001B0F0BD2168DA
:103E2000086840F480600860002000904A690092B1
:103E30008A690092009AE0634A6842F400624A602C
:103E40004A6842F440724A6001B0F0BD016C20291A
:103E50001CBF02207047282101640068016811F02E
:103E6000010F02BF016841F001010160016841F4E6
:103E700080610160416841F44071416000207047F9
:103E80000146086C28281CBF022070470A68086C8D
:103E90004B6C00F0030018430863202008640020E6
:103EA0004864116821F480611160516821F4407107
:103EB0005160704710B50168436C01248A69102B6A
:103EC0001CD112F0020219D0C26B012A02BF0224D7
:103ED000204610BD00246022046302640A6822F4B4
:103EE00080620A600A6842F400720A6044854A6887
:103EF00022F4E0624A60C46300F002F8204610BD7C
:103F000010B50446216C606C222910D1A0F140024A
:103F10001038B2FA82F2B0FA80F052094009104328
:103F200005D02068026822F4006202600AE001F015
:103F30002800282805D1002020632820206420683C
:103F40000CE020684268602906D012F4006103D1B9
:103F5000202121640021616400212163416811F462
:103F6000006F19D1216C60293BD1202121640021EF
:103F7000A164416911F0400F06D00069616A0870C0
:103F8000616A206801316162016821F0010101600C
:103F9000204600F039FE44E0416821F400614160B0
:103FA000606B416A01292AD143F67531A06BC0F6D6
:103FB0000001816301F078FE98B32068416911F037
:103FC000400F06D00069616A0870616A206801319B
:103FD0006162016821F00101016020202064A06B72
:103FE0001DE0416911F0400F05D00069616A087059
:103FF000606A01306062204600F004FE11E043F682
:104000007531C0F60001816301F04EFE48B12068B1
:10401000016821F00101016020202064606B816B48
:104020008847A06C10F00F0F04D02068416821F47D
:10403000E0614160216CA06C282918BF10BD10F010
:1040400004000DD000202021CFF6FF70E062002098
:104050002063216460642046BDE8104000F0CCBDC0
:1040600010BD00BF2DE9F04182B00446D4F80080B5
:10407000C6465EF8043FE06A666C226C402E01D0B2
:10408000102E1DD1D8F81810D8F8145015F0010FC3
:104090005FD1B0F12A4F00F0EF81B0F52A0F00F0A8
:1040A000EB8113F400704FF0010787EA502C18BF22
:1040B00015F0080051D0E06CC0B2C8F81000F9E06B
:1040C000A06C00280CBFD8F818100021D8F8146094
:1040D00013F4007518BF16F0020040F0A280002D06
:1040E00018BF16F0100040F0068142F0080103F4FA
:1040F0008060292940F02081002800F0838106F0AB
:104100008400802840F07E81206C618D002900F0C1
:10411000B381616A292811F8012BC8F81020628D3B
:10412000A2F1010262856162618D08BF002940F041
:10413000A381DEF8000020F48060CEF8000021208A
:10414000206328202064204602B0BDE8F04100F042
:104150004DBD98052FD44FF0010CBCF1000F30D1AC
:1041600015F002002DD0606CE26A236B216C2229CD
:1041700040F0B580A16D402808BF002900F0AF8055
:10418000A06D002840F07B812069B0F5404F40F0E1
:10419000768100200190D8F814000190D8F818001A
:1041A00001900198D8F8000040F48070C8F8000031
:1041B000A06D0130C5E3E06AB0F52A0F55D10120AA
:1041C00058E0DEF80000490700F4006000F1DD80EF
:1041D000002840F05181580540F1E78105F0440086
:1041E000402840F0E281206C222840F04581608D1B
:1041F0000428C0F0AE82D8F81000616A0870608DA3
:1042000001386085606A01306062608D032840F08B
:1042100033812068416821F48061416002B0BDE8CB
:10422000F081A06C002818BFD8F81810206C00F09E
:104230002800282840F0CB80DEF8000011F0800F25
:1042400020F48060CEF8000004F1180008BF04F1EB
:104250000C0002880020E063012020EA9101204642
:1042600002B0BDE8F04100F0C5BCE06AB0F12A4FF1
:1042700001D10820E062606C40280CD1A06DE16C97
:1042800001F0FE01002818BF41F00101C8F810102C
:1042900002B0BDE8F0812069B0F5804F40F0A48005
:1042A000206CE16C01F0FE01212818BF41F00101F2
:1042B000C8F81010606B08B1C06A38B9A06B00284C
:1042C00000F0DA80C06A002800F0D680DEF8000036
:1042D00040F40060CEF8000002B0BDE8F08100209C
:1042E0000190D8F814000190D8F8180001900198B6
:1042F00002B0BDE8F081256CD8F8040020F4E0603D
:10430000C8F8040000200190D8F814000190D8F8F3
:10431000000040F00100C8F800000198D8F8000043
:1043200020F48060C8F80000D8F8040010F4006F92
:1043300075D104F12A06E6E0002800F0978006F027
:104340004400402840F09280206C618D002900F0EC
:104350009380D8F81010626A2A281170618DA1F13B
:1043600001016185616A01F101016162618D08BF2E
:10437000002940F081802068416821F4806141601B
:1043800022202063282020646CE1002874D1580585
:1043900040F12C8105F08400802840F02781226CB8
:1043A000616C238DE06A212A08BF002B00F0B081E8
:1043B000212A03D0222A08BF40295DD1608D002820
:1043C00000F04682606C402800F0278221E0002047
:1043D0000190D8F814100191D8F8181001910199A2
:1043E000E06302B0BDE8F081A06D002800F0D2804B
:1043F000A06D012840D1E06C062101EAD01040F008
:10440000F100CDE0002D18BF16F0040034D0608D0F
:1044100090B3606A10F8011BC8F81010DFE045F097
:1044200008002A284CD1A06B04F12A0601684968CB
:104430006185618D00291EBFA16C41F00401A1645A
:10444000DEF8001021F40061CEF8001001F0F0FE5B
:10445000012858D043F67531A06BC0F60001816386
:1044600001F022FC00284ED0A06B4AE0002D18BFBE
:1044700016F0040040F0FC8002B0BDE8F081608DD1
:1044800070B1608D012840F00481202A18BF082AED
:1044900040F0C881D8F8000020F48060C8F800001F
:1044A00000200190D8F814000190D8F8180001906D
:1044B0000198D8F8000040F40070C8F800003FE20E
:1044C000606B04F12A06016849686185618D0029E5
:1044D0001EBFA16C41F00401A164DEF8001021F4BC
:1044E0000061CEF8001001F0A3FE01280BD043F6C6
:1044F0007531606BC0F60001816301F0D5FB10B12E
:10450000606B816B8847308810B32068416911F077
:10451000040F09D00069616A0870616A206801317E
:104520006162618D01396185416911F0400F08D0E8
:104530000069616A0870606A01306062608D0138EC
:104540006085308800281EBFA06C40F00400A06485
:10455000A06C20B1204602B0BDE8F041D0E42A2D85
:1045600006D10020206328202064204600F040FB74
:10457000206C28286BD100202021CFF6FF70E0624C
:104580000020206321646064204602B0BDE8F04151
:1045900000F032BBE06C062101EAD01040F0F000E0
:1045A000C8F8100002B0BDE8F08105F00400012158
:1045B00081EA900050EA0C007FF45EAFE16A608D02
:1045C000042840F01181D8F8040020F48060C8F875
:1045D0000400D8F81000616A0870606A01306062F7
:1045E000608D0138608502B0BDE8F08105F00400FF
:1045F000012181EA900050EA0C007FF43DAF212AAE
:1046000040F00881E16A206C21287FF435AF608D8D
:1046100000287FF4FEAEDEF8000011F5803F20F4A4
:10462000E060CEF8000018BF082940F0B181D8F84A
:104630000000202140F40070C8F800000020206332
:104640002164616C6064402940F047817BE0206B0D
:10465000222D18BF22287FF40FAF002020212063D5
:1046600021646064204602B0BDE8F04100F0C0BAA9
:10467000608D00283FF400AFD8F81000616A087020
:10468000606A01306062608D0138608502B0BDE80B
:10469000F081618DD8F80000022918D1102A00F2AB
:1046A0002281012114239140C0F20103194200F03C
:1046B0001A8140F48060C8F8000000200190D8F80A
:1046C00014000190D8F81800019001981EE140F400
:1046D0008060C8F80000D8F8040010F4006F00F003
:1046E000E980501E1F2808D8012101FA00F048F285
:1046F0008101C8F20001084203D112F5803F40F069
:10470000D980DEF8000040F48050CEF80000D1E0FF
:10471000DEF8001010F5803F21F4E061CEF80010C3
:1047200018BF082840F0D080D8F80000202140F4BD
:104730000070C8F80000002020632164616C606490
:10474000402940F0CA80204602B0BDE8F04100F0A8
:1047500055BAE16A01283FF68FAE02293FF48CAECC
:1047600000204BF28951019040F23400C1F2F8412F
:10477000C2F200000068C008A0FB0101080A00EBBB
:10478000800001900198013801900198002800F004
:10479000DC80D8F8000010F4007FF3D1D8F80000D6
:1047A00020F48060C8F80000D8F8040020F4E0602D
:1047B000C8F80400D8F81000616A0870608D0138EC
:1047C000608520202064606A013060620020616C96
:1047D0006064402900F0068112202063204602B068
:1047E000BDE8F04100F000BA608D032835D1DEF855
:1047F0000000022920F48060CEF800003FF4E9AE0A
:1048000004293FF4E6AED8F8000020F48060C8F830
:104810000000DEE6402E7FF42FAE204602B0BDE859
:10482000F041E7E012F5803F2ED1D8F8000020F4E7
:104830008060C8F80000D8F8040010F4006F3FF45E
:104840002FAED8F8000020F48060C8F8000031E0F6
:10485000DEF8000020F480603CE5608D02287FF4E3
:10486000B8AE481E0F2800F29780DFE800F0088CF1
:10487000958C959595959595959595959508D8F8D8
:10488000000020F480608BE0012A02D0122B3FF45C
:1048900001AED8F80000022A40F480610B4618BF30
:1048A00020F48063042A08BF0B46102A08BF0B4679
:1048B000C8F8003000200190D8F814000190D8F812
:1048C0001800019001983BE020283FF42DAF112003
:1048D00020630020606420202064204602B0BDE8F0
:1048E000F04100F07FB940F40060C8F800000020FB
:1048F0000190D8F814000190D8F8180001900198A0
:10490000D8F8000020F48060C8F80000DEF800004D
:1049100010F4006F14D0501E1F2808D8012101FA8E
:1049200000F048F28101C8F20001084202D112F5FC
:10493000803F05D1DEF8000040F48050CEF8000042
:104940000020A06502B0BDE8F081A06C40F020001E
:10495000A064D8F8040020F4E060C8F80400D8F897
:104960001000616A0870608D013860852020206425
:10497000606A0130606200206064204602B0BDE8D9
:10498000F04100F03FB9D8F8000040F4806007E043
:1049900020293FF44CAE9AE7D8F8000040F40070AC
:1049A000C8F80000D8F81000616A0870616A2068D1
:1049B0004A1C6262628D013A628500694870616AD0
:1049C000206801316162618D01396185416821F49E
:1049D00040714160202020640020616C60644029A7
:1049E0007FF4FAAE2063204602B0BDE8F04100F04B
:1049F00007B900BF016C826D3AB1826D012A14D1F2
:104A00000168026DD2B20A611AE00168426D036D5D
:104A1000012A18BF1B0ADAB20A614FF0010108BF70
:104A20000221826D114481657047826D022A18BF90
:104A30007047222908D101680A6842F480720A602E
:104A4000816D013181657047428D21290AD14AB1BA
:104A5000426A016812F8013B0B614262418D0139E3
:104A600041857047428D212908BF002A00D0704738
:104A700001684A6822F4E0624A600A6842F40072FF
:104A80000A600021202201630264416400F0B6B88C
:104A9000F0B581B0044620684669426806EA020122
:104AA000C905616C08D56FF4807301254361036803
:104AB00043F40043036000E0002502F48077B20570
:104AC00006D5002F1EBF6FF40072426145F002054B
:104AD000720515D5A7B1628D236CD4F830C020299A
:104AE00008BF002A17D06FF4806245F00405402902
:104AF000426101D0102903D1016841F400710160C5
:104B0000300561D5002F5FD020686FF4006145F05B
:104B1000080541615CE043F00801292909D0282BF0
:104B200008BFBCF1210F04D06FF4806145F004058B
:104B300047E0216CE26A282924D1A2F12003083A37
:104B4000B3FA83F3B2FA82F25B0952091A4319D01D
:104B50000021CFF6FF71E162416821F4E06141601C
:104B60006FF480614161016821F48061016000207F
:104B70002021206321646064204600F03DF8300568
:104B8000C0D421E021291AD10021CFF6FF71E162C2
:104B9000212121632021216400216164416821F4E5
:104BA000E06141606FF480614161016821F48061DE
:104BB0000160204600F01AF83005A3D404E06FF439
:104BC0008061416130059DD4002D04BF01B0F0BD6E
:104BD000A06C2843A064204601B0BDE8F040FFF778
:104BE0008FB900BF704700BF704700BF704700BF5C
:104BF000704700BF704700BF704700BF704700BFDD
:104C0000704700BF704700BF704700BF006C70471F
:104C1000406C7047806C704780B542F20000C4F26F
:104C20000200016841F010010160032001F004FB63
:104C3000002000F005F8FBF7D1FF002080BD00BF89
:104C4000B0B5044640F28C004FF47A71C2F2000015
:104C50000068B1FBF0F040F23401C2F200010968D3
:104C6000B1FBF0F001F062FB01250F2C0CD858B914
:104C70004FF0FF3021460022002501F0EDFA40F20E
:104C80009000C2F2000004602846B0BD704700BF2B
:104C900080B541F20C004FF0FF310022C4F2020057
:104CA000016042600160026000F002F8002080BDF7
:104CB000704700BF40F28C0043F65C51C2F2000026
:104CC000C2F2000100680A6810440860704700BF23
:104CD00043F65C50C2F200000068704740F290005A
:104CE000C2F2000000687047B0B540F28C04C2F216
:104CF0000004256885420BD0206040F29000C2F28B
:104D000000000068FFF79CFF00281CBF2560B0BDB5
:104D10000020B0BD40F28C00C2F200000068704775
:104D2000B0B50446FFF7D4FF054640F28C00611C85
:104D3000C2F20000006818BF044400BFFFF7C8FFBC
:104D4000401BA042FAD3B0BD4EF21000CEF20000DC
:104D5000016821F002010160704700BF4EF21000AF
:104D6000CEF20000016841F002010160704700BF0F
:104D700040F60000C0F20110704700BF42F2000090
:104D8000CEF204000068000C704700BF42F2000041
:104D9000CEF2040000686FF31F3070474FF2E870E6
:104DA000C1F6FF70006870474FF2EC70C1F6FF70FB
:104DB000006870474FF2F070C1F6FF7000687047EE
:104DC00042F20400CEF20400016841F001010160EA
:104DD000704700BF42F20400CEF20400016821F0E7
:104DE00001010160704700BF42F20400CEF20400EE
:104DF000016841F002010160704700BF42F2040007
:104E0000CEF20400016821F002010160704700BF8A
:104E100042F20400CEF20400016841F00401016096
:104E2000704700BF42F20400CEF20400016821F096
:104E3000040101607047000070B5FFF749FF41F2BF
:104E400000060446C4F20206306840F001003060FB
:104E5000306810F0020F05D1FFF73AFF001B02285F
:104E6000F6D952E03068102161F3C7003060FFF7D7
:104E70002FFF044600207060706810F00C0F0AD0FD
:104E800041F28835FFF724FF001BA8423DD8706827
:104E900010F00C0FF6D140F2340041F20021C2F2C2
:104EA0000000C0F27A01016040F29000C2F20000FE
:104EB0000068FFF7C5FE00281EBF0124204670BD14
:104EC000FFF706FF0446306820F08070306000BFB6
:104ED000306810F0007F05D0FFF7FAFE001B0228B3
:104EE000F6D912E000247460FFF7F2FE0546306840
:104EF00020F41020306000BF306810F4003F07D06D
:104F0000FFF7E6FE401B6428F6D90324204670BD57
:104F1000306820F480203060706A40F080707062E9
:104F20002046B46070BD00BF2DE9F04383B0044655
:104F3000002C00F0A281207841F2000941F2200704
:104F4000C4F20209C4F20207C0075ED057F81C0C75
:104F500000F00C0004281DD057F81C0C00F00C00C9
:104F6000082804D157F81C0C10F4803F12D1606857
:104F7000C0B1B0F5803F08D0D9F80010B0F5A02F2F
:104F80002BD141F48020C9F80000D9F8000040F48A
:104F900080302AE0D9F8000010F4003F35D0606876
:104FA00098BB6AE1D9F8000020F48030C9F800000D
:104FB000D9F8000020F48020C9F80000FFF788FE2F
:104FC000054600BFD9F8000010F4003F1DD0FFF7E0
:104FD0007FFE401B6428F5D9A4E121F48030C9F894
:104FE0000000D9F8000020F48020C9F80000FFF785
:104FF0006FFE0546D9F8000010F4003F05D1FFF719
:1050000067FE401B6428F5D98CE12078800739D5EC
:1050100057F81C0C10F00C0F0AD057F81C0C00F0BD
:105020000C0008280ED157F81C0C10F4803F09D151
:10503000D9F8000010F0020F1BD02069012840F0C1
:105040001C8116E021690020C4F24220002900F0F2
:10505000CA8001210160FFF73BFE0546D9F8000038
:1050600010F0020F05D1FFF733FE401B0228F5D9DF
:1050700058E1D9F80000616920F0F80040EAC10069
:10508000C9F80000207800074CD5A1690020C4F2BF
:105090004220B1B30121C0F88014FFF719FE054684
:1050A000786810F0020F05D1FFF712FE401B0228AE
:1050B000F6D937E140F2340044F6D351C2F2000091
:1050C000C1F262010068A0FB0101480A029000BF22
:1050D00000BF0298411E0028029123D000BF029811
:1050E000411E002802911DD000BF0298411E0028D9
:1050F000029117D000BF0298411E00280291E7D10B
:1051000010E00021C0F88014FFF7E2FD054600BF63
:10511000786810F0020F05D0FFF7DAFD401B022877
:10512000F6D9FFE02078400740F1908057F8040C52
:1051300010F0805F0ED157F8040C4FF0010840F0DA
:10514000805047F8040C57F8040C00F08050019090
:10515000019801E04FF0000846F20006CFF6FE7617
:1051600059F8060010F4807F13D159F8060040F476
:10517000807049F80600FFF7ABFD054659F80600B8
:1051800010F4807F05D1FFF7A3FD401B6428F5D9FB
:10519000C8E0E06858B1012805D03968052833D146
:1051A00041F004003860386840F0010032E03868AF
:1051B00020F001003860386820F004003860FFF704
:1051C00087FD0546386810F0020F36D041F2883668
:1051D000FFF77EFD401BB04200F2A480386810F05B
:1051E000020FF5D129E000210160FFF771FD0546AE
:1051F000D9F8000010F0020F3FF444AFFFF768FD4C
:10520000401B0228F4D98DE021F001003860386895
:1052100020F004003860FFF75BFD0546386810F0A9
:10522000020F0AD141F28836FFF752FD401BB0420F
:1052300078D8386810F0020FF6D0B8F1000F1EBF12
:1052400057F8040C20F0805047F8040CE669002E53
:1052500064D057F81C0C00F00C00082811D1012E66
:105260000BD057F81C0C216A00F480328A4204D11A
:10527000616A00F47010884250D0012003B0BDE88C
:10528000F08340F200080020C4F24228C8F8600011
:10529000FFF71EFD0546D9F80000022E00F0007051
:1052A00031D148B1FFF714FD401B02283AD8D9F894
:1052B000000010F0007FF5D1206AB0F5803F07D1E3
:1052C00057F81C1CA26821F40031114347F81C1C3C
:1052D00057F81C1C626A104321F47411084347F804
:1052E0001C0C0120C8F86000FFF7F2FC044600BF68
:1052F000D9F8000010F0007F10D1FFF7E9FC001B87
:105300000228F5D90EE048B1FFF7E2FC401B022865
:1053100008D8D9F8000010F0007FF5D1002003B0C4
:10532000BDE8F083032003B0BDE8F0832DE9F04130
:1053300004460D46002C00F0A78041F20407C4F299
:105340000207D7F8FC0F00F00700A8420DD2D7F8EB
:10535000FC0F20F007002843C7F8FC0FD7F8FC0F1C
:1053600000F00700A84240F08F80206810F0020F84
:1053700011D0410742BF396841F4E061396001074B
:1053800042BF396841F4605139603968A26821F040
:10539000F00111433960C00737D06068012808D197
:1053A00057F8041C11F4003F04BF0120BDE8F08150
:1053B0000BE057F8041C022805D189015CBF0120CD
:1053C000BDE8F08101E089075ED5396821F003016D
:1053D00008433860FFF77CFC06463868616800F0D7
:1053E0000C00B0EB810F10D041F28838FFF770FC51
:1053F000801B404584BF0320BDE8F08138686168A8
:1054000000F00C00B0EB810FF0D1D7F8FC0F00F0EA
:105410000700A8420CD9D7F8FC0F20F0070028435A
:10542000C7F8FC0FD7F8FC0F00F00700A8422BD1FB
:10543000206810F0040F05D03968E26821F4E061BB
:1054400011433960000706D53868216920F460509F
:1054500040EAC1003860396841F20020C0F27A00A9
:1054600001F00C02082A1DD147F2F423C1F3834254
:1054700011F4803FC0F601039A5C08D140F6001099
:10548000C0F23D0050430DE00120BDE8F0813968D5
:10549000504347F2DC22C0F60102C1F34041515CA7
:1054A000B0FBF1F0396846F65832C0F60102C1F39C
:1054B0000311515CC84040F23401C2F2000108609F
:1054C00040F29000C2F200000068FFF7B9FB002034
:1054D000BDE8F08141F2040C41F20020C4F2020C5C
:1054E000C0F27A00DCF8002002F00C03082B18BF91
:1054F000704747F2F421C2F3834312F4803FC0F6B1
:105500000101CB5C05D140F60010C0F23D005843CC
:105510007047DCF8001047F2DC225843C0F6010265
:10552000C1F34041515CB0FBF1F07047B0B586B0BB
:10553000032041F218050C4602A905900220C4F28E
:1055400002050390002004904FF4807002902868B8
:1055500040F004002860286800F0040001900198E1
:1055600040F60000C4F2010000F0B0F855F8140C49
:1055700020F0E060204345F8140C06B0B0BD00BF39
:105580004C200121C4F24220016070474C200021D0
:10559000C4F242200160704740F23400C2F20000C1
:1055A0000068704740F2340041F2040146F6683268
:1055B000C2F20000C4F20201C0F6010200680968EC
:1055C000C1F30221515CC840704700BF40F2340073
:1055D00041F2040146F66832C2F20000C4F2020150
:1055E000C0F6010200680968C1F3C221515CC840DD
:1055F000704700BF0F21016041F20001C4F20201B7
:105600000A6812F4802F06BF0A6802F480324FF451
:10561000A02242604A6802F4003282600A6802F006
:10562000010202610A68C2F3C40242610A6A12F00E
:10563000040F06BF0A6A02F001020522C2604A6A2C
:1056400002F0010282610A68C2F300620132C261A3
:105650004A6802F480320262496801F470114162C2
:10566000704700BF0F22026041F20402C4F202023E
:10567000136803F003034360136803F0F0038360CF
:10568000136803F4E063C3604FF4E063126803EA55
:10569000D202026142F20000C4F20200006800F08F
:1056A00007000860704700BF10B541F20804C4F25B
:1056B0000204206810F0800F08BF10BD00F004F84D
:1056C0008020A07010BD00BF704700002DE9F04F92
:1056D00083B0D1F800E0BEF1000F00F0088141F284
:1056E0000042042340F2004840F20C4901244FF0EC
:1056F000000A4FF0000BC4F20102C4F20108C4F228
:105700000109904200F1140208BF032301920093A3
:10571000002300BF04FA0AFC1EEA0C0F00F0DE8032
:105720004FF6FF724D68C1F21002954212DC122D45
:1057300056D80F24DFE805F0360A45495656565626
:105740005656565656565656564C5000D1F80CB032
:1057500048E000BF4FF6FF72C1F22102954210DC13
:1057600000220F24C1F2110295421BD00022C1F287
:105770001202954216D00022C1F22102954211D0A8
:1057800030E000220F24C1F2220295420AD000220A
:10579000C1F23102954205D00022C1F23202954297
:1057A00020D100BF8A684AB1012A019A4FF0080B44
:1057B00008BF00F11002C2F800C013E04FF0040B64
:1057C00010E0CA6802F1080B0CE04FF0000B09E092
:1057D000CA6802F1040B05E0CA6802F10C0B01E093
:1057E0000F2400BF4FF6F875BAF1080F024656466F
:1057F00028BF0432C3F6FF75176828BF2E44B600D1
:1058000004FA06F50BFA06F6AF4337431760CA7978
:10581000D20601D4012461E041F218020F25C4F23E
:1058200002021446226842F001022260226803F05C
:105830000C0402F00102029205FA04F24FEA9A0502
:10584000029FA8F57E7757F82560964340F6000240
:10585000C4F2010290420ED040F60042C4F20102AE
:1058600090420AD041F20002C4F201029042009A32
:1058700008BF022202E0002200E00122A2403243DF
:1058800047F825204C68D8F8002014F4803F0CBF5E
:1058900022EA0C0242EA0C02C8F80020A203D8F85F
:1058A000042054BF22EA0C0242EA0C02C8F8042089
:1058B000E202D8F8082054BF22EA0C0242EA0C02A5
:1058C000C8F80820A2024FF00104D9F8002054BF04
:1058D00022EA0C0242EA0C02C9F80020D1F800E0EA
:1058E0000AF1010A04333EFA0AF27FF413AF03B05F
:1058F000BDE8F08F2DE9F04F82B0002900F08A80DA
:1059000041F2004240F200434FF00F0C4FF0000B09
:10591000C4F20102C4F2010390424FF00402A3F565
:105920007E7308BF0322019300920022012303FA31
:105930000BF414EA010A67D0019B4FEA9B0802F0BE
:105940000C090CFA09FC53F8284040F60003C4F295
:10595000010304EA0C04984213D040F60043C4F259
:10596000010398420AD041F20003DDF800E0C4F2DE
:105970000103984208BF4FF0020E04E04FF0010E01
:1059800001E04FF0000E0EFA09F5AC421ED1019B6A
:1059900053F8285025EA0C0543F8285040F20043FC
:1059A000C4F201031D6825EA0A051D605D6825EA49
:1059B0000A055D609D6825EA0A059D6040F20C437A
:1059C000C4F201031D6825EA0A051D604FF6F87749
:1059D000BAF5807F05465B464FF00F0C6FEA0A046C
:1059E00028BF0435C3F6FF772E6828BF3B449B00D1
:1059F0000CFA03F726EA0707042606FA03F33B43EB
:105A00002B60C3682340C3600BF1010B043231FAF1
:105A10000BF38BD102B0BDE8F08F00BF8068084067
:105A200018BF0120704700BF002A08BF09040161A8
:105A3000704700BFC26802EA0103914341EA034193
:105A40000161704781B04FF480320092009A0A439E
:105A50000092009A8261816100998161816900915F
:105A60000121806921EA104001B0704740F21441E1
:105A7000C4F201010A68024214BF0860704709F0CD
:105A80000DBF00BF7047000001460120002908BF7C
:105A90007047B0B54FF6F8720B6840F2000CCBF6C9
:105AA000FD72C4F2020C03EB020E4CF6CD42CCF6B2
:105AB000CC42AEFB022E4FF6FC72C3F6FF7202EA36
:105AC0009E02C1E910C243F6F072D3F800C02CEA7E
:105AD000020CD1E9012ED1E9034542EA0C0242EA67
